{
  "contractName": "FootballVersePlayer",
  "abi": [
    {
      "inputs": [
        {
          "internalType": "string",
          "name": "tokenName",
          "type": "string"
        },
        {
          "internalType": "string",
          "name": "tokenSymbol",
          "type": "string"
        }
      ],
      "stateMutability": "nonpayable",
      "type": "constructor"
    },
    {
      "anonymous": false,
      "inputs": [
        {
          "indexed": true,
          "internalType": "address",
          "name": "owner",
          "type": "address"
        },
        {
          "indexed": true,
          "internalType": "address",
          "name": "approved",
          "type": "address"
        },
        {
          "indexed": true,
          "internalType": "uint256",
          "name": "tokenId",
          "type": "uint256"
        }
      ],
      "name": "Approval",
      "type": "event"
    },
    {
      "anonymous": false,
      "inputs": [
        {
          "indexed": true,
          "internalType": "address",
          "name": "owner",
          "type": "address"
        },
        {
          "indexed": true,
          "internalType": "address",
          "name": "operator",
          "type": "address"
        },
        {
          "indexed": false,
          "internalType": "bool",
          "name": "approved",
          "type": "bool"
        }
      ],
      "name": "ApprovalForAll",
      "type": "event"
    },
    {
      "anonymous": false,
      "inputs": [
        {
          "indexed": true,
          "internalType": "address",
          "name": "previousOwner",
          "type": "address"
        },
        {
          "indexed": true,
          "internalType": "address",
          "name": "newOwner",
          "type": "address"
        }
      ],
      "name": "OwnershipTransferred",
      "type": "event"
    },
    {
      "anonymous": false,
      "inputs": [
        {
          "indexed": true,
          "internalType": "address",
          "name": "from",
          "type": "address"
        },
        {
          "indexed": true,
          "internalType": "address",
          "name": "to",
          "type": "address"
        },
        {
          "indexed": true,
          "internalType": "uint256",
          "name": "tokenId",
          "type": "uint256"
        }
      ],
      "name": "Transfer",
      "type": "event"
    },
    {
      "inputs": [
        {
          "internalType": "address",
          "name": "to",
          "type": "address"
        },
        {
          "internalType": "uint256",
          "name": "tokenId",
          "type": "uint256"
        }
      ],
      "name": "approve",
      "outputs": [],
      "stateMutability": "nonpayable",
      "type": "function"
    },
    {
      "inputs": [
        {
          "internalType": "address",
          "name": "owner",
          "type": "address"
        }
      ],
      "name": "balanceOf",
      "outputs": [
        {
          "internalType": "uint256",
          "name": "",
          "type": "uint256"
        }
      ],
      "stateMutability": "view",
      "type": "function",
      "constant": true
    },
    {
      "inputs": [
        {
          "internalType": "uint256",
          "name": "tokenId",
          "type": "uint256"
        }
      ],
      "name": "getApproved",
      "outputs": [
        {
          "internalType": "address",
          "name": "",
          "type": "address"
        }
      ],
      "stateMutability": "view",
      "type": "function",
      "constant": true
    },
    {
      "inputs": [
        {
          "internalType": "address",
          "name": "owner",
          "type": "address"
        },
        {
          "internalType": "address",
          "name": "operator",
          "type": "address"
        }
      ],
      "name": "isApprovedForAll",
      "outputs": [
        {
          "internalType": "bool",
          "name": "",
          "type": "bool"
        }
      ],
      "stateMutability": "view",
      "type": "function",
      "constant": true
    },
    {
      "inputs": [],
      "name": "name",
      "outputs": [
        {
          "internalType": "string",
          "name": "",
          "type": "string"
        }
      ],
      "stateMutability": "view",
      "type": "function",
      "constant": true
    },
    {
      "inputs": [],
      "name": "owner",
      "outputs": [
        {
          "internalType": "address",
          "name": "",
          "type": "address"
        }
      ],
      "stateMutability": "view",
      "type": "function",
      "constant": true
    },
    {
      "inputs": [
        {
          "internalType": "uint256",
          "name": "tokenId",
          "type": "uint256"
        }
      ],
      "name": "ownerOf",
      "outputs": [
        {
          "internalType": "address",
          "name": "",
          "type": "address"
        }
      ],
      "stateMutability": "view",
      "type": "function",
      "constant": true
    },
    {
      "inputs": [],
      "name": "renounceOwnership",
      "outputs": [],
      "stateMutability": "nonpayable",
      "type": "function"
    },
    {
      "inputs": [
        {
          "internalType": "address",
          "name": "from",
          "type": "address"
        },
        {
          "internalType": "address",
          "name": "to",
          "type": "address"
        },
        {
          "internalType": "uint256",
          "name": "tokenId",
          "type": "uint256"
        }
      ],
      "name": "safeTransferFrom",
      "outputs": [],
      "stateMutability": "nonpayable",
      "type": "function"
    },
    {
      "inputs": [
        {
          "internalType": "address",
          "name": "from",
          "type": "address"
        },
        {
          "internalType": "address",
          "name": "to",
          "type": "address"
        },
        {
          "internalType": "uint256",
          "name": "tokenId",
          "type": "uint256"
        },
        {
          "internalType": "bytes",
          "name": "data",
          "type": "bytes"
        }
      ],
      "name": "safeTransferFrom",
      "outputs": [],
      "stateMutability": "nonpayable",
      "type": "function"
    },
    {
      "inputs": [
        {
          "internalType": "address",
          "name": "operator",
          "type": "address"
        },
        {
          "internalType": "bool",
          "name": "approved",
          "type": "bool"
        }
      ],
      "name": "setApprovalForAll",
      "outputs": [],
      "stateMutability": "nonpayable",
      "type": "function"
    },
    {
      "inputs": [
        {
          "internalType": "bytes4",
          "name": "interfaceId",
          "type": "bytes4"
        }
      ],
      "name": "supportsInterface",
      "outputs": [
        {
          "internalType": "bool",
          "name": "",
          "type": "bool"
        }
      ],
      "stateMutability": "view",
      "type": "function",
      "constant": true
    },
    {
      "inputs": [],
      "name": "symbol",
      "outputs": [
        {
          "internalType": "string",
          "name": "",
          "type": "string"
        }
      ],
      "stateMutability": "view",
      "type": "function",
      "constant": true
    },
    {
      "inputs": [
        {
          "internalType": "uint256",
          "name": "tokenId",
          "type": "uint256"
        }
      ],
      "name": "tokenURI",
      "outputs": [
        {
          "internalType": "string",
          "name": "",
          "type": "string"
        }
      ],
      "stateMutability": "view",
      "type": "function",
      "constant": true
    },
    {
      "inputs": [
        {
          "internalType": "address",
          "name": "from",
          "type": "address"
        },
        {
          "internalType": "address",
          "name": "to",
          "type": "address"
        },
        {
          "internalType": "uint256",
          "name": "tokenId",
          "type": "uint256"
        }
      ],
      "name": "transferFrom",
      "outputs": [],
      "stateMutability": "nonpayable",
      "type": "function"
    },
    {
      "inputs": [
        {
          "internalType": "address",
          "name": "newOwner",
          "type": "address"
        }
      ],
      "name": "transferOwnership",
      "outputs": [],
      "stateMutability": "nonpayable",
      "type": "function"
    },
    {
      "inputs": [
        {
          "internalType": "address",
          "name": "_to",
          "type": "address"
        }
      ],
      "name": "mintPlayer",
      "outputs": [],
      "stateMutability": "payable",
      "type": "function",
      "payable": true
    }
  ],
  "bytecode": "0x608060405260006007553480156200001657600080fd5b5060405162002ff138038062002ff183398181016040528101906200003c9190620002f7565b818181600090816200004f9190620005c7565b508060019081620000619190620005c7565b50505062000084620000786200008c60201b60201c565b6200009460201b60201c565b5050620006ae565b600033905090565b6000600660009054906101000a900473ffffffffffffffffffffffffffffffffffffffff16905081600660006101000a81548173ffffffffffffffffffffffffffffffffffffffff021916908373ffffffffffffffffffffffffffffffffffffffff1602179055508173ffffffffffffffffffffffffffffffffffffffff168173ffffffffffffffffffffffffffffffffffffffff167f8be0079c531659141344cd1fd0a4f28419497f9722a3daafe3b4186f6b6457e060405160405180910390a35050565b6000604051905090565b600080fd5b600080fd5b600080fd5b600080fd5b6000601f19601f8301169050919050565b7f4e487b7100000000000000000000000000000000000000000000000000000000600052604160045260246000fd5b620001c38262000178565b810181811067ffffffffffffffff82111715620001e557620001e462000189565b5b80604052505050565b6000620001fa6200015a565b9050620002088282620001b8565b919050565b600067ffffffffffffffff8211156200022b576200022a62000189565b5b620002368262000178565b9050602081019050919050565b60005b838110156200026357808201518184015260208101905062000246565b8381111562000273576000848401525b50505050565b6000620002906200028a846200020d565b620001ee565b905082815260208101848484011115620002af57620002ae62000173565b5b620002bc84828562000243565b509392505050565b600082601f830112620002dc57620002db6200016e565b5b8151620002ee84826020860162000279565b91505092915050565b6000806040838503121562000311576200031062000164565b5b600083015167ffffffffffffffff81111562000332576200033162000169565b5b6200034085828601620002c4565b925050602083015167ffffffffffffffff81111562000364576200036362000169565b5b6200037285828601620002c4565b9150509250929050565b600081519050919050565b7f4e487b7100000000000000000000000000000000000000000000000000000000600052602260045260246000fd5b60006002820490506001821680620003cf57607f821691505b602082108103620003e557620003e462000387565b5b50919050565b60008190508160005260206000209050919050565b60006020601f8301049050919050565b600082821b905092915050565b6000600883026200044f7fffffffffffffffffffffffffffffffffffffffffffffffffffffffffffffffff8262000410565b6200045b868362000410565b95508019841693508086168417925050509392505050565b6000819050919050565b6000819050919050565b6000620004a8620004a26200049c8462000473565b6200047d565b62000473565b9050919050565b6000819050919050565b620004c48362000487565b620004dc620004d382620004af565b8484546200041d565b825550505050565b600090565b620004f3620004e4565b62000500818484620004b9565b505050565b5b8181101562000528576200051c600082620004e9565b60018101905062000506565b5050565b601f82111562000577576200054181620003eb565b6200054c8462000400565b810160208510156200055c578190505b620005746200056b8562000400565b83018262000505565b50505b505050565b600082821c905092915050565b60006200059c600019846008026200057c565b1980831691505092915050565b6000620005b7838362000589565b9150826002028217905092915050565b620005d2826200037c565b67ffffffffffffffff811115620005ee57620005ed62000189565b5b620005fa8254620003b6565b620006078282856200052c565b600060209050601f8311600181146200063f57600084156200062a578287015190505b620006368582620005a9565b865550620006a6565b601f1984166200064f86620003eb565b60005b82811015620006795784890151825560018201915060208501945060208101905062000652565b8683101562000699578489015162000695601f89168262000589565b8355505b6001600288020188555050505b505050505050565b61293380620006be6000396000f3fe6080604052600436106100fe5760003560e01c8063715018a611610095578063b88d4fde11610064578063b88d4fde14610333578063c87b56dd1461035c578063e985e9c514610399578063f2fde38b146103d6578063faefe223146103ff576100fe565b8063715018a61461029d5780638da5cb5b146102b457806395d89b41146102df578063a22cb4651461030a576100fe565b806323b872dd116100d157806323b872dd146101d157806342842e0e146101fa5780636352211e1461022357806370a0823114610260576100fe565b806301ffc9a71461010357806306fdde0314610140578063081812fc1461016b578063095ea7b3146101a8575b600080fd5b34801561010f57600080fd5b5061012a60048036038101906101259190611996565b61041b565b60405161013791906119de565b60405180910390f35b34801561014c57600080fd5b506101556104fd565b6040516101629190611a92565b60405180910390f35b34801561017757600080fd5b50610192600480360381019061018d9190611aea565b61058f565b60405161019f9190611b58565b60405180910390f35b3480156101b457600080fd5b506101cf60048036038101906101ca9190611b9f565b6105d5565b005b3480156101dd57600080fd5b506101f860048036038101906101f39190611bdf565b6106ec565b005b34801561020657600080fd5b50610221600480360381019061021c9190611bdf565b61074c565b005b34801561022f57600080fd5b5061024a60048036038101906102459190611aea565b61076c565b6040516102579190611b58565b60405180910390f35b34801561026c57600080fd5b5061028760048036038101906102829190611c32565b61081d565b6040516102949190611c6e565b60405180910390f35b3480156102a957600080fd5b506102b26108d4565b005b3480156102c057600080fd5b506102c96108e8565b6040516102d69190611b58565b60405180910390f35b3480156102eb57600080fd5b506102f4610912565b6040516103019190611a92565b60405180910390f35b34801561031657600080fd5b50610331600480360381019061032c9190611cb5565b6109a4565b005b34801561033f57600080fd5b5061035a60048036038101906103559190611e2a565b6109ba565b005b34801561036857600080fd5b50610383600480360381019061037e9190611aea565b610a1c565b6040516103909190611a92565b60405180910390f35b3480156103a557600080fd5b506103c060048036038101906103bb9190611ead565b610a84565b6040516103cd91906119de565b60405180910390f35b3480156103e257600080fd5b506103fd60048036038101906103f89190611c32565b610b18565b005b61041960048036038101906104149190611c32565b610b9b565b005b60007f80ac58cd000000000000000000000000000000000000000000000000000000007bffffffffffffffffffffffffffffffffffffffffffffffffffffffff1916827bffffffffffffffffffffffffffffffffffffffffffffffffffffffff191614806104e657507f5b5e139f000000000000000000000000000000000000000000000000000000007bffffffffffffffffffffffffffffffffffffffffffffffffffffffff1916827bffffffffffffffffffffffffffffffffffffffffffffffffffffffff1916145b806104f657506104f582610bc4565b5b9050919050565b60606000805461050c90611f1c565b80601f016020809104026020016040519081016040528092919081815260200182805461053890611f1c565b80156105855780601f1061055a57610100808354040283529160200191610585565b820191906000526020600020905b81548152906001019060200180831161056857829003601f168201915b5050505050905090565b600061059a82610c2e565b6004600083815260200190815260200160002060009054906101000a900473ffffffffffffffffffffffffffffffffffffffff169050919050565b60006105e08261076c565b90508073ffffffffffffffffffffffffffffffffffffffff168373ffffffffffffffffffffffffffffffffffffffff1603610650576040517f08c379a000000000000000000000000000000000000000000000000000000000815260040161064790611fbf565b60405180910390fd5b8073ffffffffffffffffffffffffffffffffffffffff1661066f610c79565b73ffffffffffffffffffffffffffffffffffffffff16148061069e575061069d81610698610c79565b610a84565b5b6106dd576040517f08c379a00000000000000000000000000000000000000000000000000000000081526004016106d490612051565b60405180910390fd5b6106e78383610c81565b505050565b6106fd6106f7610c79565b82610d3a565b61073c576040517f08c379a0000000000000000000000000000000000000000000000000000000008152600401610733906120e3565b60405180910390fd5b610747838383610dcf565b505050565b610767838383604051806020016040528060008152506109ba565b505050565b6000806002600084815260200190815260200160002060009054906101000a900473ffffffffffffffffffffffffffffffffffffffff169050600073ffffffffffffffffffffffffffffffffffffffff168173ffffffffffffffffffffffffffffffffffffffff1603610814576040517f08c379a000000000000000000000000000000000000000000000000000000000815260040161080b9061214f565b60405180910390fd5b80915050919050565b60008073ffffffffffffffffffffffffffffffffffffffff168273ffffffffffffffffffffffffffffffffffffffff160361088d576040517f08c379a0000000000000000000000000000000000000000000000000000000008152600401610884906121e1565b60405180910390fd5b600360008373ffffffffffffffffffffffffffffffffffffffff1673ffffffffffffffffffffffffffffffffffffffff168152602001908152602001600020549050919050565b6108dc611035565b6108e660006110b3565b565b6000600660009054906101000a900473ffffffffffffffffffffffffffffffffffffffff16905090565b60606001805461092190611f1c565b80601f016020809104026020016040519081016040528092919081815260200182805461094d90611f1c565b801561099a5780601f1061096f5761010080835404028352916020019161099a565b820191906000526020600020905b81548152906001019060200180831161097d57829003601f168201915b5050505050905090565b6109b66109af610c79565b8383611179565b5050565b6109cb6109c5610c79565b83610d3a565b610a0a576040517f08c379a0000000000000000000000000000000000000000000000000000000008152600401610a01906120e3565b60405180910390fd5b610a16848484846112e5565b50505050565b6060610a2782610c2e565b6000610a31611341565b90506000815111610a515760405180602001604052806000815250610a7c565b80610a5b84611358565b604051602001610a6c92919061223d565b6040516020818303038152906040525b915050919050565b6000600560008473ffffffffffffffffffffffffffffffffffffffff1673ffffffffffffffffffffffffffffffffffffffff16815260200190815260200160002060008373ffffffffffffffffffffffffffffffffffffffff1673ffffffffffffffffffffffffffffffffffffffff16815260200190815260200160002060009054906101000a900460ff16905092915050565b610b20611035565b600073ffffffffffffffffffffffffffffffffffffffff168173ffffffffffffffffffffffffffffffffffffffff1603610b8f576040517f08c379a0000000000000000000000000000000000000000000000000000000008152600401610b86906122d3565b60405180910390fd5b610b98816110b3565b50565b610ba7816007546114b8565b600160076000828254610bba9190612322565b9250508190555050565b60007f01ffc9a7000000000000000000000000000000000000000000000000000000007bffffffffffffffffffffffffffffffffffffffffffffffffffffffff1916827bffffffffffffffffffffffffffffffffffffffffffffffffffffffff1916149050919050565b610c37816114d6565b610c76576040517f08c379a0000000000000000000000000000000000000000000000000000000008152600401610c6d9061214f565b60405180910390fd5b50565b600033905090565b816004600083815260200190815260200160002060006101000a81548173ffffffffffffffffffffffffffffffffffffffff021916908373ffffffffffffffffffffffffffffffffffffffff160217905550808273ffffffffffffffffffffffffffffffffffffffff16610cf48361076c565b73ffffffffffffffffffffffffffffffffffffffff167f8c5be1e5ebec7d5bd14f71427d1e84f3dd0314c0f7b2291e5b200ac8c7c3b92560405160405180910390a45050565b600080610d468361076c565b90508073ffffffffffffffffffffffffffffffffffffffff168473ffffffffffffffffffffffffffffffffffffffff161480610d885750610d878185610a84565b5b80610dc657508373ffffffffffffffffffffffffffffffffffffffff16610dae8461058f565b73ffffffffffffffffffffffffffffffffffffffff16145b91505092915050565b8273ffffffffffffffffffffffffffffffffffffffff16610def8261076c565b73ffffffffffffffffffffffffffffffffffffffff1614610e45576040517f08c379a0000000000000000000000000000000000000000000000000000000008152600401610e3c906123ea565b60405180910390fd5b600073ffffffffffffffffffffffffffffffffffffffff168273ffffffffffffffffffffffffffffffffffffffff1603610eb4576040517f08c379a0000000000000000000000000000000000000000000000000000000008152600401610eab9061247c565b60405180910390fd5b610ebf838383611542565b610eca600082610c81565b6001600360008573ffffffffffffffffffffffffffffffffffffffff1673ffffffffffffffffffffffffffffffffffffffff1681526020019081526020016000206000828254610f1a919061249c565b925050819055506001600360008473ffffffffffffffffffffffffffffffffffffffff1673ffffffffffffffffffffffffffffffffffffffff1681526020019081526020016000206000828254610f719190612322565b92505081905550816002600083815260200190815260200160002060006101000a81548173ffffffffffffffffffffffffffffffffffffffff021916908373ffffffffffffffffffffffffffffffffffffffff160217905550808273ffffffffffffffffffffffffffffffffffffffff168473ffffffffffffffffffffffffffffffffffffffff167fddf252ad1be2c89b69c2b068fc378daa952ba7f163c4a11628f55a4df523b3ef60405160405180910390a4611030838383611547565b505050565b61103d610c79565b73ffffffffffffffffffffffffffffffffffffffff1661105b6108e8565b73ffffffffffffffffffffffffffffffffffffffff16146110b1576040517f08c379a00000000000000000000000000000000000000000000000000000000081526004016110a89061251c565b60405180910390fd5b565b6000600660009054906101000a900473ffffffffffffffffffffffffffffffffffffffff16905081600660006101000a81548173ffffffffffffffffffffffffffffffffffffffff021916908373ffffffffffffffffffffffffffffffffffffffff1602179055508173ffffffffffffffffffffffffffffffffffffffff168173ffffffffffffffffffffffffffffffffffffffff167f8be0079c531659141344cd1fd0a4f28419497f9722a3daafe3b4186f6b6457e060405160405180910390a35050565b8173ffffffffffffffffffffffffffffffffffffffff168373ffffffffffffffffffffffffffffffffffffffff16036111e7576040517f08c379a00000000000000000000000000000000000000000000000000000000081526004016111de90612588565b60405180910390fd5b80600560008573ffffffffffffffffffffffffffffffffffffffff1673ffffffffffffffffffffffffffffffffffffffff16815260200190815260200160002060008473ffffffffffffffffffffffffffffffffffffffff1673ffffffffffffffffffffffffffffffffffffffff16815260200190815260200160002060006101000a81548160ff0219169083151502179055508173ffffffffffffffffffffffffffffffffffffffff168373ffffffffffffffffffffffffffffffffffffffff167f17307eab39ab6107e8899845ad3d59bd9653f200f220920489ca2b5937696c31836040516112d891906119de565b60405180910390a3505050565b6112f0848484610dcf565b6112fc8484848461154c565b61133b576040517f08c379a00000000000000000000000000000000000000000000000000000000081526004016113329061261a565b60405180910390fd5b50505050565b606060405180602001604052806000815250905090565b60606000820361139f576040518060400160405280600181526020017f300000000000000000000000000000000000000000000000000000000000000081525090506114b3565b600082905060005b600082146113d15780806113ba9061263a565b915050600a826113ca91906126b1565b91506113a7565b60008167ffffffffffffffff8111156113ed576113ec611cff565b5b6040519080825280601f01601f19166020018201604052801561141f5781602001600182028036833780820191505090505b5090505b600085146114ac57600182611438919061249c565b9150600a8561144791906126e2565b60306114539190612322565b60f81b81838151811061146957611468612713565b5b60200101907effffffffffffffffffffffffffffffffffffffffffffffffffffffffffffff1916908160001a905350600a856114a591906126b1565b9450611423565b8093505050505b919050565b6114d28282604051806020016040528060008152506116d3565b5050565b60008073ffffffffffffffffffffffffffffffffffffffff166002600084815260200190815260200160002060009054906101000a900473ffffffffffffffffffffffffffffffffffffffff1673ffffffffffffffffffffffffffffffffffffffff1614159050919050565b505050565b505050565b600061156d8473ffffffffffffffffffffffffffffffffffffffff1661172e565b156116c6578373ffffffffffffffffffffffffffffffffffffffff1663150b7a02611596610c79565b8786866040518563ffffffff1660e01b81526004016115b89493929190612797565b6020604051808303816000875af19250505080156115f457506040513d601f19601f820116820180604052508101906115f191906127f8565b60015b611676573d8060008114611624576040519150601f19603f3d011682016040523d82523d6000602084013e611629565b606091505b50600081510361166e576040517f08c379a00000000000000000000000000000000000000000000000000000000081526004016116659061261a565b60405180910390fd5b805181602001fd5b63150b7a0260e01b7bffffffffffffffffffffffffffffffffffffffffffffffffffffffff1916817bffffffffffffffffffffffffffffffffffffffffffffffffffffffff1916149150506116cb565b600190505b949350505050565b6116dd8383611751565b6116ea600084848461154c565b611729576040517f08c379a00000000000000000000000000000000000000000000000000000000081526004016117209061261a565b60405180910390fd5b505050565b6000808273ffffffffffffffffffffffffffffffffffffffff163b119050919050565b600073ffffffffffffffffffffffffffffffffffffffff168273ffffffffffffffffffffffffffffffffffffffff16036117c0576040517f08c379a00000000000000000000000000000000000000000000000000000000081526004016117b790612871565b60405180910390fd5b6117c9816114d6565b15611809576040517f08c379a0000000000000000000000000000000000000000000000000000000008152600401611800906128dd565b60405180910390fd5b61181560008383611542565b6001600360008473ffffffffffffffffffffffffffffffffffffffff1673ffffffffffffffffffffffffffffffffffffffff16815260200190815260200160002060008282546118659190612322565b92505081905550816002600083815260200190815260200160002060006101000a81548173ffffffffffffffffffffffffffffffffffffffff021916908373ffffffffffffffffffffffffffffffffffffffff160217905550808273ffffffffffffffffffffffffffffffffffffffff16600073ffffffffffffffffffffffffffffffffffffffff167fddf252ad1be2c89b69c2b068fc378daa952ba7f163c4a11628f55a4df523b3ef60405160405180910390a461192660008383611547565b5050565b6000604051905090565b600080fd5b600080fd5b60007fffffffff0000000000000000000000000000000000000000000000000000000082169050919050565b6119738161193e565b811461197e57600080fd5b50565b6000813590506119908161196a565b92915050565b6000602082840312156119ac576119ab611934565b5b60006119ba84828501611981565b91505092915050565b60008115159050919050565b6119d8816119c3565b82525050565b60006020820190506119f360008301846119cf565b92915050565b600081519050919050565b600082825260208201905092915050565b60005b83811015611a33578082015181840152602081019050611a18565b83811115611a42576000848401525b50505050565b6000601f19601f8301169050919050565b6000611a64826119f9565b611a6e8185611a04565b9350611a7e818560208601611a15565b611a8781611a48565b840191505092915050565b60006020820190508181036000830152611aac8184611a59565b905092915050565b6000819050919050565b611ac781611ab4565b8114611ad257600080fd5b50565b600081359050611ae481611abe565b92915050565b600060208284031215611b0057611aff611934565b5b6000611b0e84828501611ad5565b91505092915050565b600073ffffffffffffffffffffffffffffffffffffffff82169050919050565b6000611b4282611b17565b9050919050565b611b5281611b37565b82525050565b6000602082019050611b6d6000830184611b49565b92915050565b611b7c81611b37565b8114611b8757600080fd5b50565b600081359050611b9981611b73565b92915050565b60008060408385031215611bb657611bb5611934565b5b6000611bc485828601611b8a565b9250506020611bd585828601611ad5565b9150509250929050565b600080600060608486031215611bf857611bf7611934565b5b6000611c0686828701611b8a565b9350506020611c1786828701611b8a565b9250506040611c2886828701611ad5565b9150509250925092565b600060208284031215611c4857611c47611934565b5b6000611c5684828501611b8a565b91505092915050565b611c6881611ab4565b82525050565b6000602082019050611c836000830184611c5f565b92915050565b611c92816119c3565b8114611c9d57600080fd5b50565b600081359050611caf81611c89565b92915050565b60008060408385031215611ccc57611ccb611934565b5b6000611cda85828601611b8a565b9250506020611ceb85828601611ca0565b9150509250929050565b600080fd5b600080fd5b7f4e487b7100000000000000000000000000000000000000000000000000000000600052604160045260246000fd5b611d3782611a48565b810181811067ffffffffffffffff82111715611d5657611d55611cff565b5b80604052505050565b6000611d6961192a565b9050611d758282611d2e565b919050565b600067ffffffffffffffff821115611d9557611d94611cff565b5b611d9e82611a48565b9050602081019050919050565b82818337600083830152505050565b6000611dcd611dc884611d7a565b611d5f565b905082815260208101848484011115611de957611de8611cfa565b5b611df4848285611dab565b509392505050565b600082601f830112611e1157611e10611cf5565b5b8135611e21848260208601611dba565b91505092915050565b60008060008060808587031215611e4457611e43611934565b5b6000611e5287828801611b8a565b9450506020611e6387828801611b8a565b9350506040611e7487828801611ad5565b925050606085013567ffffffffffffffff811115611e9557611e94611939565b5b611ea187828801611dfc565b91505092959194509250565b60008060408385031215611ec457611ec3611934565b5b6000611ed285828601611b8a565b9250506020611ee385828601611b8a565b9150509250929050565b7f4e487b7100000000000000000000000000000000000000000000000000000000600052602260045260246000fd5b60006002820490506001821680611f3457607f821691505b602082108103611f4757611f46611eed565b5b50919050565b7f4552433732313a20617070726f76616c20746f2063757272656e74206f776e6560008201527f7200000000000000000000000000000000000000000000000000000000000000602082015250565b6000611fa9602183611a04565b9150611fb482611f4d565b604082019050919050565b60006020820190508181036000830152611fd881611f9c565b9050919050565b7f4552433732313a20617070726f76652063616c6c6572206973206e6f7420746f60008201527f6b656e206f776e6572206e6f7220617070726f76656420666f7220616c6c0000602082015250565b600061203b603e83611a04565b915061204682611fdf565b604082019050919050565b6000602082019050818103600083015261206a8161202e565b9050919050565b7f4552433732313a2063616c6c6572206973206e6f7420746f6b656e206f776e6560008201527f72206e6f7220617070726f766564000000000000000000000000000000000000602082015250565b60006120cd602e83611a04565b91506120d882612071565b604082019050919050565b600060208201905081810360008301526120fc816120c0565b9050919050565b7f4552433732313a20696e76616c696420746f6b656e2049440000000000000000600082015250565b6000612139601883611a04565b915061214482612103565b602082019050919050565b600060208201905081810360008301526121688161212c565b9050919050565b7f4552433732313a2061646472657373207a65726f206973206e6f74206120766160008201527f6c6964206f776e65720000000000000000000000000000000000000000000000602082015250565b60006121cb602983611a04565b91506121d68261216f565b604082019050919050565b600060208201905081810360008301526121fa816121be565b9050919050565b600081905092915050565b6000612217826119f9565b6122218185612201565b9350612231818560208601611a15565b80840191505092915050565b6000612249828561220c565b9150612255828461220c565b91508190509392505050565b7f4f776e61626c653a206e6577206f776e657220697320746865207a65726f206160008201527f6464726573730000000000000000000000000000000000000000000000000000602082015250565b60006122bd602683611a04565b91506122c882612261565b604082019050919050565b600060208201905081810360008301526122ec816122b0565b9050919050565b7f4e487b7100000000000000000000000000000000000000000000000000000000600052601160045260246000fd5b600061232d82611ab4565b915061233883611ab4565b9250827fffffffffffffffffffffffffffffffffffffffffffffffffffffffffffffffff0382111561236d5761236c6122f3565b5b828201905092915050565b7f4552433732313a207472616e736665722066726f6d20696e636f72726563742060008201527f6f776e6572000000000000000000000000000000000000000000000000000000602082015250565b60006123d4602583611a04565b91506123df82612378565b604082019050919050565b60006020820190508181036000830152612403816123c7565b9050919050565b7f4552433732313a207472616e7366657220746f20746865207a65726f2061646460008201527f7265737300000000000000000000000000000000000000000000000000000000602082015250565b6000612466602483611a04565b91506124718261240a565b604082019050919050565b6000602082019050818103600083015261249581612459565b9050919050565b60006124a782611ab4565b91506124b283611ab4565b9250828210156124c5576124c46122f3565b5b828203905092915050565b7f4f776e61626c653a2063616c6c6572206973206e6f7420746865206f776e6572600082015250565b6000612506602083611a04565b9150612511826124d0565b602082019050919050565b60006020820190508181036000830152612535816124f9565b9050919050565b7f4552433732313a20617070726f766520746f2063616c6c657200000000000000600082015250565b6000612572601983611a04565b915061257d8261253c565b602082019050919050565b600060208201905081810360008301526125a181612565565b9050919050565b7f4552433732313a207472616e7366657220746f206e6f6e20455243373231526560008201527f63656976657220696d706c656d656e7465720000000000000000000000000000602082015250565b6000612604603283611a04565b915061260f826125a8565b604082019050919050565b60006020820190508181036000830152612633816125f7565b9050919050565b600061264582611ab4565b91507fffffffffffffffffffffffffffffffffffffffffffffffffffffffffffffffff8203612677576126766122f3565b5b600182019050919050565b7f4e487b7100000000000000000000000000000000000000000000000000000000600052601260045260246000fd5b60006126bc82611ab4565b91506126c783611ab4565b9250826126d7576126d6612682565b5b828204905092915050565b60006126ed82611ab4565b91506126f883611ab4565b92508261270857612707612682565b5b828206905092915050565b7f4e487b7100000000000000000000000000000000000000000000000000000000600052603260045260246000fd5b600081519050919050565b600082825260208201905092915050565b600061276982612742565b612773818561274d565b9350612783818560208601611a15565b61278c81611a48565b840191505092915050565b60006080820190506127ac6000830187611b49565b6127b96020830186611b49565b6127c66040830185611c5f565b81810360608301526127d8818461275e565b905095945050505050565b6000815190506127f28161196a565b92915050565b60006020828403121561280e5761280d611934565b5b600061281c848285016127e3565b91505092915050565b7f4552433732313a206d696e7420746f20746865207a65726f2061646472657373600082015250565b600061285b602083611a04565b915061286682612825565b602082019050919050565b6000602082019050818103600083015261288a8161284e565b9050919050565b7f4552433732313a20746f6b656e20616c7265616479206d696e74656400000000600082015250565b60006128c7601c83611a04565b91506128d282612891565b602082019050919050565b600060208201905081810360008301526128f6816128ba565b905091905056fea26469706673582212206cfaaefc8d0616d2d2fd2e1e9bb47b8dc48caea659acd99974d73d393b2098bd64736f6c634300080f0033",
  "immutableReferences": {},
  "source": "// SPDX-License-Identifier: GPL-3.0\r\n\r\npragma solidity >=0.7.0 <0.9.0;\r\n\r\nimport \"@openzeppelin/contracts/token/ERC721/ERC721.sol\";\r\nimport \"@openzeppelin/contracts/access/Ownable.sol\";\r\n\r\n/**\r\n * @title FootballVersePlayer\r\n* @dev MVP version of the FootballVerse Club Contract\r\n */\r\ncontract FootballVersePlayer is ERC721, Ownable {\r\n    uint256 index = 0;\r\n\r\n    struct Player {\r\n        string name;\r\n        string surname;\r\n        uint8 att;\r\n        uint8 mid;\r\n        uint8 def;\r\n        uint8 age;\r\n    }\r\n\r\n    constructor(string memory tokenName, string memory tokenSymbol) ERC721(tokenName, tokenSymbol) {}\r\n\r\n    function mintPlayer(address _to) public payable {\r\n        _safeMint(_to, index);\r\n        index+=1;\r\n    }\r\n}",
  "sourcePath": "C:\\Users\\38597\\Desktop\\ct\\footballverse\\footballverse\\contracts\\FootballVersePlayer.sol",
  "compiler": {
    "name": "solc",
    "version": "0.8.15+commit.e14f2714.Emscripten.clang"
  },
  "schemaVersion": "3.4.8",
  "updatedAt": "2022-08-10T21:39:37.220Z",
  "networkType": "ethereum",
  "devdoc": {
    "details": "MVP version of the FootballVerse Club Contract",
    "kind": "dev",
    "methods": {
      "approve(address,uint256)": {
        "details": "See {IERC721-approve}."
      },
      "balanceOf(address)": {
        "details": "See {IERC721-balanceOf}."
      },
      "getApproved(uint256)": {
        "details": "See {IERC721-getApproved}."
      },
      "isApprovedForAll(address,address)": {
        "details": "See {IERC721-isApprovedForAll}."
      },
      "name()": {
        "details": "See {IERC721Metadata-name}."
      },
      "owner()": {
        "details": "Returns the address of the current owner."
      },
      "ownerOf(uint256)": {
        "details": "See {IERC721-ownerOf}."
      },
      "renounceOwnership()": {
        "details": "Leaves the contract without owner. It will not be possible to call `onlyOwner` functions anymore. Can only be called by the current owner. NOTE: Renouncing ownership will leave the contract without an owner, thereby removing any functionality that is only available to the owner."
      },
      "safeTransferFrom(address,address,uint256)": {
        "details": "See {IERC721-safeTransferFrom}."
      },
      "safeTransferFrom(address,address,uint256,bytes)": {
        "details": "See {IERC721-safeTransferFrom}."
      },
      "setApprovalForAll(address,bool)": {
        "details": "See {IERC721-setApprovalForAll}."
      },
      "supportsInterface(bytes4)": {
        "details": "See {IERC165-supportsInterface}."
      },
      "symbol()": {
        "details": "See {IERC721Metadata-symbol}."
      },
      "tokenURI(uint256)": {
        "details": "See {IERC721Metadata-tokenURI}."
      },
      "transferFrom(address,address,uint256)": {
        "details": "See {IERC721-transferFrom}."
      },
      "transferOwnership(address)": {
        "details": "Transfers ownership of the contract to a new account (`newOwner`). Can only be called by the current owner."
      }
    },
    "title": "FootballVersePlayer",
    "version": 1
  },
  "userdoc": {
    "kind": "user",
    "methods": {},
    "version": 1
  }
}