{
  "contractName": "FootballVerseClub",
  "abi": [
    {
      "inputs": [
        {
          "internalType": "string",
          "name": "tokenName",
          "type": "string"
        },
        {
          "internalType": "string",
          "name": "tokenSymbol",
          "type": "string"
        }
      ],
      "stateMutability": "nonpayable",
      "type": "constructor"
    },
    {
      "anonymous": false,
      "inputs": [
        {
          "indexed": true,
          "internalType": "address",
          "name": "owner",
          "type": "address"
        },
        {
          "indexed": true,
          "internalType": "address",
          "name": "approved",
          "type": "address"
        },
        {
          "indexed": true,
          "internalType": "uint256",
          "name": "tokenId",
          "type": "uint256"
        }
      ],
      "name": "Approval",
      "type": "event"
    },
    {
      "anonymous": false,
      "inputs": [
        {
          "indexed": true,
          "internalType": "address",
          "name": "owner",
          "type": "address"
        },
        {
          "indexed": true,
          "internalType": "address",
          "name": "operator",
          "type": "address"
        },
        {
          "indexed": false,
          "internalType": "bool",
          "name": "approved",
          "type": "bool"
        }
      ],
      "name": "ApprovalForAll",
      "type": "event"
    },
    {
      "anonymous": false,
      "inputs": [
        {
          "indexed": true,
          "internalType": "address",
          "name": "owner",
          "type": "address"
        },
        {
          "indexed": false,
          "internalType": "uint256",
          "name": "index",
          "type": "uint256"
        }
      ],
      "name": "NewClub",
      "type": "event"
    },
    {
      "anonymous": false,
      "inputs": [
        {
          "indexed": true,
          "internalType": "address",
          "name": "previousOwner",
          "type": "address"
        },
        {
          "indexed": true,
          "internalType": "address",
          "name": "newOwner",
          "type": "address"
        }
      ],
      "name": "OwnershipTransferred",
      "type": "event"
    },
    {
      "anonymous": false,
      "inputs": [
        {
          "indexed": true,
          "internalType": "address",
          "name": "from",
          "type": "address"
        },
        {
          "indexed": true,
          "internalType": "address",
          "name": "to",
          "type": "address"
        },
        {
          "indexed": true,
          "internalType": "uint256",
          "name": "tokenId",
          "type": "uint256"
        }
      ],
      "name": "Transfer",
      "type": "event"
    },
    {
      "inputs": [
        {
          "internalType": "address",
          "name": "to",
          "type": "address"
        },
        {
          "internalType": "uint256",
          "name": "tokenId",
          "type": "uint256"
        }
      ],
      "name": "approve",
      "outputs": [],
      "stateMutability": "nonpayable",
      "type": "function"
    },
    {
      "inputs": [
        {
          "internalType": "address",
          "name": "owner",
          "type": "address"
        }
      ],
      "name": "balanceOf",
      "outputs": [
        {
          "internalType": "uint256",
          "name": "",
          "type": "uint256"
        }
      ],
      "stateMutability": "view",
      "type": "function",
      "constant": true
    },
    {
      "inputs": [
        {
          "internalType": "uint256",
          "name": "",
          "type": "uint256"
        }
      ],
      "name": "clubs",
      "outputs": [
        {
          "internalType": "string",
          "name": "name",
          "type": "string"
        },
        {
          "internalType": "uint8",
          "name": "stadium",
          "type": "uint8"
        },
        {
          "internalType": "uint8",
          "name": "academy",
          "type": "uint8"
        }
      ],
      "stateMutability": "view",
      "type": "function",
      "constant": true
    },
    {
      "inputs": [
        {
          "internalType": "uint256",
          "name": "tokenId",
          "type": "uint256"
        }
      ],
      "name": "getApproved",
      "outputs": [
        {
          "internalType": "address",
          "name": "",
          "type": "address"
        }
      ],
      "stateMutability": "view",
      "type": "function",
      "constant": true
    },
    {
      "inputs": [
        {
          "internalType": "address",
          "name": "owner",
          "type": "address"
        },
        {
          "internalType": "address",
          "name": "operator",
          "type": "address"
        }
      ],
      "name": "isApprovedForAll",
      "outputs": [
        {
          "internalType": "bool",
          "name": "",
          "type": "bool"
        }
      ],
      "stateMutability": "view",
      "type": "function",
      "constant": true
    },
    {
      "inputs": [],
      "name": "name",
      "outputs": [
        {
          "internalType": "string",
          "name": "",
          "type": "string"
        }
      ],
      "stateMutability": "view",
      "type": "function",
      "constant": true
    },
    {
      "inputs": [],
      "name": "owner",
      "outputs": [
        {
          "internalType": "address",
          "name": "",
          "type": "address"
        }
      ],
      "stateMutability": "view",
      "type": "function",
      "constant": true
    },
    {
      "inputs": [
        {
          "internalType": "uint256",
          "name": "tokenId",
          "type": "uint256"
        }
      ],
      "name": "ownerOf",
      "outputs": [
        {
          "internalType": "address",
          "name": "",
          "type": "address"
        }
      ],
      "stateMutability": "view",
      "type": "function",
      "constant": true
    },
    {
      "inputs": [],
      "name": "renounceOwnership",
      "outputs": [],
      "stateMutability": "nonpayable",
      "type": "function"
    },
    {
      "inputs": [
        {
          "internalType": "address",
          "name": "from",
          "type": "address"
        },
        {
          "internalType": "address",
          "name": "to",
          "type": "address"
        },
        {
          "internalType": "uint256",
          "name": "tokenId",
          "type": "uint256"
        }
      ],
      "name": "safeTransferFrom",
      "outputs": [],
      "stateMutability": "nonpayable",
      "type": "function"
    },
    {
      "inputs": [
        {
          "internalType": "address",
          "name": "from",
          "type": "address"
        },
        {
          "internalType": "address",
          "name": "to",
          "type": "address"
        },
        {
          "internalType": "uint256",
          "name": "tokenId",
          "type": "uint256"
        },
        {
          "internalType": "bytes",
          "name": "data",
          "type": "bytes"
        }
      ],
      "name": "safeTransferFrom",
      "outputs": [],
      "stateMutability": "nonpayable",
      "type": "function"
    },
    {
      "inputs": [
        {
          "internalType": "address",
          "name": "operator",
          "type": "address"
        },
        {
          "internalType": "bool",
          "name": "approved",
          "type": "bool"
        }
      ],
      "name": "setApprovalForAll",
      "outputs": [],
      "stateMutability": "nonpayable",
      "type": "function"
    },
    {
      "inputs": [
        {
          "internalType": "bytes4",
          "name": "interfaceId",
          "type": "bytes4"
        }
      ],
      "name": "supportsInterface",
      "outputs": [
        {
          "internalType": "bool",
          "name": "",
          "type": "bool"
        }
      ],
      "stateMutability": "view",
      "type": "function",
      "constant": true
    },
    {
      "inputs": [],
      "name": "symbol",
      "outputs": [
        {
          "internalType": "string",
          "name": "",
          "type": "string"
        }
      ],
      "stateMutability": "view",
      "type": "function",
      "constant": true
    },
    {
      "inputs": [
        {
          "internalType": "uint256",
          "name": "tokenId",
          "type": "uint256"
        }
      ],
      "name": "tokenURI",
      "outputs": [
        {
          "internalType": "string",
          "name": "",
          "type": "string"
        }
      ],
      "stateMutability": "view",
      "type": "function",
      "constant": true
    },
    {
      "inputs": [
        {
          "internalType": "address",
          "name": "from",
          "type": "address"
        },
        {
          "internalType": "address",
          "name": "to",
          "type": "address"
        },
        {
          "internalType": "uint256",
          "name": "tokenId",
          "type": "uint256"
        }
      ],
      "name": "transferFrom",
      "outputs": [],
      "stateMutability": "nonpayable",
      "type": "function"
    },
    {
      "inputs": [
        {
          "internalType": "address",
          "name": "newOwner",
          "type": "address"
        }
      ],
      "name": "transferOwnership",
      "outputs": [],
      "stateMutability": "nonpayable",
      "type": "function"
    },
    {
      "inputs": [
        {
          "internalType": "string",
          "name": "_name",
          "type": "string"
        }
      ],
      "name": "_createClub",
      "outputs": [],
      "stateMutability": "payable",
      "type": "function",
      "payable": true
    },
    {
      "inputs": [
        {
          "internalType": "uint256",
          "name": "newFee",
          "type": "uint256"
        }
      ],
      "name": "changeFee",
      "outputs": [],
      "stateMutability": "nonpayable",
      "type": "function"
    },
    {
      "inputs": [],
      "name": "withdraw",
      "outputs": [],
      "stateMutability": "payable",
      "type": "function",
      "payable": true
    },
    {
      "inputs": [],
      "name": "getClubs",
      "outputs": [
        {
          "components": [
            {
              "internalType": "string",
              "name": "name",
              "type": "string"
            },
            {
              "internalType": "uint8",
              "name": "stadium",
              "type": "uint8"
            },
            {
              "internalType": "uint8",
              "name": "academy",
              "type": "uint8"
            }
          ],
          "internalType": "struct FootballVerseClub.Club[]",
          "name": "",
          "type": "tuple[]"
        }
      ],
      "stateMutability": "view",
      "type": "function",
      "constant": true
    }
  ],
  "bytecode": "0x6080604052670de0b6b3a76400006008553480156200001d57600080fd5b5060405162003a6638038062003a668339818101604052810190620000439190620002fe565b81818160009081620000569190620005ce565b508060019081620000689190620005ce565b5050506200008b6200007f6200009360201b60201c565b6200009b60201b60201c565b5050620006b5565b600033905090565b6000600660009054906101000a900473ffffffffffffffffffffffffffffffffffffffff16905081600660006101000a81548173ffffffffffffffffffffffffffffffffffffffff021916908373ffffffffffffffffffffffffffffffffffffffff1602179055508173ffffffffffffffffffffffffffffffffffffffff168173ffffffffffffffffffffffffffffffffffffffff167f8be0079c531659141344cd1fd0a4f28419497f9722a3daafe3b4186f6b6457e060405160405180910390a35050565b6000604051905090565b600080fd5b600080fd5b600080fd5b600080fd5b6000601f19601f8301169050919050565b7f4e487b7100000000000000000000000000000000000000000000000000000000600052604160045260246000fd5b620001ca826200017f565b810181811067ffffffffffffffff82111715620001ec57620001eb62000190565b5b80604052505050565b60006200020162000161565b90506200020f8282620001bf565b919050565b600067ffffffffffffffff82111562000232576200023162000190565b5b6200023d826200017f565b9050602081019050919050565b60005b838110156200026a5780820151818401526020810190506200024d565b838111156200027a576000848401525b50505050565b600062000297620002918462000214565b620001f5565b905082815260208101848484011115620002b657620002b56200017a565b5b620002c38482856200024a565b509392505050565b600082601f830112620002e357620002e262000175565b5b8151620002f584826020860162000280565b91505092915050565b600080604083850312156200031857620003176200016b565b5b600083015167ffffffffffffffff81111562000339576200033862000170565b5b6200034785828601620002cb565b925050602083015167ffffffffffffffff8111156200036b576200036a62000170565b5b6200037985828601620002cb565b9150509250929050565b600081519050919050565b7f4e487b7100000000000000000000000000000000000000000000000000000000600052602260045260246000fd5b60006002820490506001821680620003d657607f821691505b602082108103620003ec57620003eb6200038e565b5b50919050565b60008190508160005260206000209050919050565b60006020601f8301049050919050565b600082821b905092915050565b600060088302620004567fffffffffffffffffffffffffffffffffffffffffffffffffffffffffffffffff8262000417565b62000462868362000417565b95508019841693508086168417925050509392505050565b6000819050919050565b6000819050919050565b6000620004af620004a9620004a3846200047a565b62000484565b6200047a565b9050919050565b6000819050919050565b620004cb836200048e565b620004e3620004da82620004b6565b84845462000424565b825550505050565b600090565b620004fa620004eb565b62000507818484620004c0565b505050565b5b818110156200052f5762000523600082620004f0565b6001810190506200050d565b5050565b601f8211156200057e576200054881620003f2565b620005538462000407565b8101602085101562000563578190505b6200057b620005728562000407565b8301826200050c565b50505b505050565b600082821c905092915050565b6000620005a36000198460080262000583565b1980831691505092915050565b6000620005be838362000590565b9150826002028217905092915050565b620005d98262000383565b67ffffffffffffffff811115620005f557620005f462000190565b5b620006018254620003bd565b6200060e82828562000533565b600060209050601f83116001811462000646576000841562000631578287015190505b6200063d8582620005b0565b865550620006ad565b601f1984166200065686620003f2565b60005b82811015620006805784890151825560018201915060208501945060208101905062000659565b86831015620006a057848901516200069c601f89168262000590565b8355505b6001600288020188555050505b505050505050565b6133a180620006c56000396000f3fe60806040526004361061012a5760003560e01c806370a08231116100ab5780639cc009c11161006f5780639cc009c1146103b0578063a22cb465146103ef578063b88d4fde14610418578063c87b56dd14610441578063e985e9c51461047e578063f2fde38b146104bb5761012a565b806370a08231146102db578063715018a6146103185780637586a2bd1461032f5780638da5cb5b1461035a57806395d89b41146103855761012a565b80633ccfd60b116100f25780633ccfd60b1461022657806342842e0e1461023057806361475dc1146102595780636352211e146102755780636a1db1bf146102b25761012a565b806301ffc9a71461012f57806306fdde031461016c578063081812fc14610197578063095ea7b3146101d457806323b872dd146101fd575b600080fd5b34801561013b57600080fd5b5061015660048036038101906101519190611e23565b6104e4565b6040516101639190611e6b565b60405180910390f35b34801561017857600080fd5b506101816105c6565b60405161018e9190611f1f565b60405180910390f35b3480156101a357600080fd5b506101be60048036038101906101b99190611f77565b610658565b6040516101cb9190611fe5565b60405180910390f35b3480156101e057600080fd5b506101fb60048036038101906101f6919061202c565b61069e565b005b34801561020957600080fd5b50610224600480360381019061021f919061206c565b6107b5565b005b61022e610815565b005b34801561023c57600080fd5b506102576004803603810190610252919061206c565b610873565b005b610273600480360381019061026e91906121f4565b610893565b005b34801561028157600080fd5b5061029c60048036038101906102979190611f77565b610a09565b6040516102a99190611fe5565b60405180910390f35b3480156102be57600080fd5b506102d960048036038101906102d49190611f77565b610aba565b005b3480156102e757600080fd5b5061030260048036038101906102fd919061223d565b610acc565b60405161030f9190612279565b60405180910390f35b34801561032457600080fd5b5061032d610b83565b005b34801561033b57600080fd5b50610344610b97565b604051610351919061240c565b60405180910390f35b34801561036657600080fd5b5061036f610cc2565b60405161037c9190611fe5565b60405180910390f35b34801561039157600080fd5b5061039a610cec565b6040516103a79190611f1f565b60405180910390f35b3480156103bc57600080fd5b506103d760048036038101906103d29190611f77565b610d7e565b6040516103e69392919061243d565b60405180910390f35b3480156103fb57600080fd5b50610416600480360381019061041191906124a7565b610e5a565b005b34801561042457600080fd5b5061043f600480360381019061043a9190612588565b610e70565b005b34801561044d57600080fd5b5061046860048036038101906104639190611f77565b610ed2565b6040516104759190611f1f565b60405180910390f35b34801561048a57600080fd5b506104a560048036038101906104a0919061260b565b610f3a565b6040516104b29190611e6b565b60405180910390f35b3480156104c757600080fd5b506104e260048036038101906104dd919061223d565b610fce565b005b60007f80ac58cd000000000000000000000000000000000000000000000000000000007bffffffffffffffffffffffffffffffffffffffffffffffffffffffff1916827bffffffffffffffffffffffffffffffffffffffffffffffffffffffff191614806105af57507f5b5e139f000000000000000000000000000000000000000000000000000000007bffffffffffffffffffffffffffffffffffffffffffffffffffffffff1916827bffffffffffffffffffffffffffffffffffffffffffffffffffffffff1916145b806105bf57506105be82611051565b5b9050919050565b6060600080546105d59061267a565b80601f01602080910402602001604051908101604052809291908181526020018280546106019061267a565b801561064e5780601f106106235761010080835404028352916020019161064e565b820191906000526020600020905b81548152906001019060200180831161063157829003601f168201915b5050505050905090565b6000610663826110bb565b6004600083815260200190815260200160002060009054906101000a900473ffffffffffffffffffffffffffffffffffffffff169050919050565b60006106a982610a09565b90508073ffffffffffffffffffffffffffffffffffffffff168373ffffffffffffffffffffffffffffffffffffffff1603610719576040517f08c379a00000000000000000000000000000000000000000000000000000000081526004016107109061271d565b60405180910390fd5b8073ffffffffffffffffffffffffffffffffffffffff16610738611106565b73ffffffffffffffffffffffffffffffffffffffff161480610767575061076681610761611106565b610f3a565b5b6107a6576040517f08c379a000000000000000000000000000000000000000000000000000000000815260040161079d906127af565b60405180910390fd5b6107b0838361110e565b505050565b6107c66107c0611106565b826111c7565b610805576040517f08c379a00000000000000000000000000000000000000000000000000000000081526004016107fc90612841565b60405180910390fd5b61081083838361125c565b505050565b61081d6114c2565b6000610827610cc2565b90508073ffffffffffffffffffffffffffffffffffffffff166108fc479081150290604051600060405180830381858888f1935050505015801561086f573d6000803e3d6000fd5b5050565b61088e83838360405180602001604052806000815250610e70565b505050565b6008543410156108d8576040517f08c379a00000000000000000000000000000000000000000000000000000000081526004016108cf906128d3565b60405180910390fd5b60006040518060600160405280838152602001600160ff168152602001600160ff168152509050600981908060018154018082558091505060019003906000526020600020906002020160009091909190915060008201518160000190816109409190612a9f565b5060208201518160010160006101000a81548160ff021916908360ff16021790555060408201518160010160016101000a81548160ff021916908360ff160217905550505061099133600754611540565b600760008154809291906109a490612ba0565b91905055503373ffffffffffffffffffffffffffffffffffffffff167fba3924473b2eb5a50880b6caac30a725fe20ae29aac735ae088785d9e8d1ab9860016007546109f09190612be8565b6040516109fd9190612279565b60405180910390a25050565b6000806002600084815260200190815260200160002060009054906101000a900473ffffffffffffffffffffffffffffffffffffffff169050600073ffffffffffffffffffffffffffffffffffffffff168173ffffffffffffffffffffffffffffffffffffffff1603610ab1576040517f08c379a0000000000000000000000000000000000000000000000000000000008152600401610aa890612c68565b60405180910390fd5b80915050919050565b610ac26114c2565b8060088190555050565b60008073ffffffffffffffffffffffffffffffffffffffff168273ffffffffffffffffffffffffffffffffffffffff1603610b3c576040517f08c379a0000000000000000000000000000000000000000000000000000000008152600401610b3390612cfa565b60405180910390fd5b600360008373ffffffffffffffffffffffffffffffffffffffff1673ffffffffffffffffffffffffffffffffffffffff168152602001908152602001600020549050919050565b610b8b6114c2565b610b95600061155e565b565b60606009805480602002602001604051908101604052809291908181526020016000905b82821015610cb95783829060005260206000209060020201604051806060016040529081600082018054610bee9061267a565b80601f0160208091040260200160405190810160405280929190818152602001828054610c1a9061267a565b8015610c675780601f10610c3c57610100808354040283529160200191610c67565b820191906000526020600020905b815481529060010190602001808311610c4a57829003601f168201915b505050505081526020016001820160009054906101000a900460ff1660ff1660ff1681526020016001820160019054906101000a900460ff1660ff1660ff168152505081526020019060010190610bbb565b50505050905090565b6000600660009054906101000a900473ffffffffffffffffffffffffffffffffffffffff16905090565b606060018054610cfb9061267a565b80601f0160208091040260200160405190810160405280929190818152602001828054610d279061267a565b8015610d745780601f10610d4957610100808354040283529160200191610d74565b820191906000526020600020905b815481529060010190602001808311610d5757829003601f168201915b5050505050905090565b60098181548110610d8e57600080fd5b9060005260206000209060020201600091509050806000018054610db19061267a565b80601f0160208091040260200160405190810160405280929190818152602001828054610ddd9061267a565b8015610e2a5780601f10610dff57610100808354040283529160200191610e2a565b820191906000526020600020905b815481529060010190602001808311610e0d57829003601f168201915b5050505050908060010160009054906101000a900460ff16908060010160019054906101000a900460ff16905083565b610e6c610e65611106565b8383611624565b5050565b610e81610e7b611106565b836111c7565b610ec0576040517f08c379a0000000000000000000000000000000000000000000000000000000008152600401610eb790612841565b60405180910390fd5b610ecc84848484611790565b50505050565b6060610edd826110bb565b6000610ee76117ec565b90506000815111610f075760405180602001604052806000815250610f32565b80610f1184611803565b604051602001610f22929190612d56565b6040516020818303038152906040525b915050919050565b6000600560008473ffffffffffffffffffffffffffffffffffffffff1673ffffffffffffffffffffffffffffffffffffffff16815260200190815260200160002060008373ffffffffffffffffffffffffffffffffffffffff1673ffffffffffffffffffffffffffffffffffffffff16815260200190815260200160002060009054906101000a900460ff16905092915050565b610fd66114c2565b600073ffffffffffffffffffffffffffffffffffffffff168173ffffffffffffffffffffffffffffffffffffffff1603611045576040517f08c379a000000000000000000000000000000000000000000000000000000000815260040161103c90612dec565b60405180910390fd5b61104e8161155e565b50565b60007f01ffc9a7000000000000000000000000000000000000000000000000000000007bffffffffffffffffffffffffffffffffffffffffffffffffffffffff1916827bffffffffffffffffffffffffffffffffffffffffffffffffffffffff1916149050919050565b6110c481611963565b611103576040517f08c379a00000000000000000000000000000000000000000000000000000000081526004016110fa90612c68565b60405180910390fd5b50565b600033905090565b816004600083815260200190815260200160002060006101000a81548173ffffffffffffffffffffffffffffffffffffffff021916908373ffffffffffffffffffffffffffffffffffffffff160217905550808273ffffffffffffffffffffffffffffffffffffffff1661118183610a09565b73ffffffffffffffffffffffffffffffffffffffff167f8c5be1e5ebec7d5bd14f71427d1e84f3dd0314c0f7b2291e5b200ac8c7c3b92560405160405180910390a45050565b6000806111d383610a09565b90508073ffffffffffffffffffffffffffffffffffffffff168473ffffffffffffffffffffffffffffffffffffffff16148061121557506112148185610f3a565b5b8061125357508373ffffffffffffffffffffffffffffffffffffffff1661123b84610658565b73ffffffffffffffffffffffffffffffffffffffff16145b91505092915050565b8273ffffffffffffffffffffffffffffffffffffffff1661127c82610a09565b73ffffffffffffffffffffffffffffffffffffffff16146112d2576040517f08c379a00000000000000000000000000000000000000000000000000000000081526004016112c990612e7e565b60405180910390fd5b600073ffffffffffffffffffffffffffffffffffffffff168273ffffffffffffffffffffffffffffffffffffffff1603611341576040517f08c379a000000000000000000000000000000000000000000000000000000000815260040161133890612f10565b60405180910390fd5b61134c8383836119cf565b61135760008261110e565b6001600360008573ffffffffffffffffffffffffffffffffffffffff1673ffffffffffffffffffffffffffffffffffffffff16815260200190815260200160002060008282546113a79190612be8565b925050819055506001600360008473ffffffffffffffffffffffffffffffffffffffff1673ffffffffffffffffffffffffffffffffffffffff16815260200190815260200160002060008282546113fe9190612f30565b92505081905550816002600083815260200190815260200160002060006101000a81548173ffffffffffffffffffffffffffffffffffffffff021916908373ffffffffffffffffffffffffffffffffffffffff160217905550808273ffffffffffffffffffffffffffffffffffffffff168473ffffffffffffffffffffffffffffffffffffffff167fddf252ad1be2c89b69c2b068fc378daa952ba7f163c4a11628f55a4df523b3ef60405160405180910390a46114bd8383836119d4565b505050565b6114ca611106565b73ffffffffffffffffffffffffffffffffffffffff166114e8610cc2565b73ffffffffffffffffffffffffffffffffffffffff161461153e576040517f08c379a000000000000000000000000000000000000000000000000000000000815260040161153590612fd2565b60405180910390fd5b565b61155a8282604051806020016040528060008152506119d9565b5050565b6000600660009054906101000a900473ffffffffffffffffffffffffffffffffffffffff16905081600660006101000a81548173ffffffffffffffffffffffffffffffffffffffff021916908373ffffffffffffffffffffffffffffffffffffffff1602179055508173ffffffffffffffffffffffffffffffffffffffff168173ffffffffffffffffffffffffffffffffffffffff167f8be0079c531659141344cd1fd0a4f28419497f9722a3daafe3b4186f6b6457e060405160405180910390a35050565b8173ffffffffffffffffffffffffffffffffffffffff168373ffffffffffffffffffffffffffffffffffffffff1603611692576040517f08c379a00000000000000000000000000000000000000000000000000000000081526004016116899061303e565b60405180910390fd5b80600560008573ffffffffffffffffffffffffffffffffffffffff1673ffffffffffffffffffffffffffffffffffffffff16815260200190815260200160002060008473ffffffffffffffffffffffffffffffffffffffff1673ffffffffffffffffffffffffffffffffffffffff16815260200190815260200160002060006101000a81548160ff0219169083151502179055508173ffffffffffffffffffffffffffffffffffffffff168373ffffffffffffffffffffffffffffffffffffffff167f17307eab39ab6107e8899845ad3d59bd9653f200f220920489ca2b5937696c31836040516117839190611e6b565b60405180910390a3505050565b61179b84848461125c565b6117a784848484611a34565b6117e6576040517f08c379a00000000000000000000000000000000000000000000000000000000081526004016117dd906130d0565b60405180910390fd5b50505050565b606060405180602001604052806000815250905090565b60606000820361184a576040518060400160405280600181526020017f3000000000000000000000000000000000000000000000000000000000000000815250905061195e565b600082905060005b6000821461187c57808061186590612ba0565b915050600a82611875919061311f565b9150611852565b60008167ffffffffffffffff811115611898576118976120c9565b5b6040519080825280601f01601f1916602001820160405280156118ca5781602001600182028036833780820191505090505b5090505b60008514611957576001826118e39190612be8565b9150600a856118f29190613150565b60306118fe9190612f30565b60f81b81838151811061191457611913613181565b5b60200101907effffffffffffffffffffffffffffffffffffffffffffffffffffffffffffff1916908160001a905350600a85611950919061311f565b94506118ce565b8093505050505b919050565b60008073ffffffffffffffffffffffffffffffffffffffff166002600084815260200190815260200160002060009054906101000a900473ffffffffffffffffffffffffffffffffffffffff1673ffffffffffffffffffffffffffffffffffffffff1614159050919050565b505050565b505050565b6119e38383611bbb565b6119f06000848484611a34565b611a2f576040517f08c379a0000000000000000000000000000000000000000000000000000000008152600401611a26906130d0565b60405180910390fd5b505050565b6000611a558473ffffffffffffffffffffffffffffffffffffffff16611d94565b15611bae578373ffffffffffffffffffffffffffffffffffffffff1663150b7a02611a7e611106565b8786866040518563ffffffff1660e01b8152600401611aa09493929190613205565b6020604051808303816000875af1925050508015611adc57506040513d601f19601f82011682018060405250810190611ad99190613266565b60015b611b5e573d8060008114611b0c576040519150601f19603f3d011682016040523d82523d6000602084013e611b11565b606091505b506000815103611b56576040517f08c379a0000000000000000000000000000000000000000000000000000000008152600401611b4d906130d0565b60405180910390fd5b805181602001fd5b63150b7a0260e01b7bffffffffffffffffffffffffffffffffffffffffffffffffffffffff1916817bffffffffffffffffffffffffffffffffffffffffffffffffffffffff191614915050611bb3565b600190505b949350505050565b600073ffffffffffffffffffffffffffffffffffffffff168273ffffffffffffffffffffffffffffffffffffffff1603611c2a576040517f08c379a0000000000000000000000000000000000000000000000000000000008152600401611c21906132df565b60405180910390fd5b611c3381611963565b15611c73576040517f08c379a0000000000000000000000000000000000000000000000000000000008152600401611c6a9061334b565b60405180910390fd5b611c7f600083836119cf565b6001600360008473ffffffffffffffffffffffffffffffffffffffff1673ffffffffffffffffffffffffffffffffffffffff1681526020019081526020016000206000828254611ccf9190612f30565b92505081905550816002600083815260200190815260200160002060006101000a81548173ffffffffffffffffffffffffffffffffffffffff021916908373ffffffffffffffffffffffffffffffffffffffff160217905550808273ffffffffffffffffffffffffffffffffffffffff16600073ffffffffffffffffffffffffffffffffffffffff167fddf252ad1be2c89b69c2b068fc378daa952ba7f163c4a11628f55a4df523b3ef60405160405180910390a4611d90600083836119d4565b5050565b6000808273ffffffffffffffffffffffffffffffffffffffff163b119050919050565b6000604051905090565b600080fd5b600080fd5b60007fffffffff0000000000000000000000000000000000000000000000000000000082169050919050565b611e0081611dcb565b8114611e0b57600080fd5b50565b600081359050611e1d81611df7565b92915050565b600060208284031215611e3957611e38611dc1565b5b6000611e4784828501611e0e565b91505092915050565b60008115159050919050565b611e6581611e50565b82525050565b6000602082019050611e806000830184611e5c565b92915050565b600081519050919050565b600082825260208201905092915050565b60005b83811015611ec0578082015181840152602081019050611ea5565b83811115611ecf576000848401525b50505050565b6000601f19601f8301169050919050565b6000611ef182611e86565b611efb8185611e91565b9350611f0b818560208601611ea2565b611f1481611ed5565b840191505092915050565b60006020820190508181036000830152611f398184611ee6565b905092915050565b6000819050919050565b611f5481611f41565b8114611f5f57600080fd5b50565b600081359050611f7181611f4b565b92915050565b600060208284031215611f8d57611f8c611dc1565b5b6000611f9b84828501611f62565b91505092915050565b600073ffffffffffffffffffffffffffffffffffffffff82169050919050565b6000611fcf82611fa4565b9050919050565b611fdf81611fc4565b82525050565b6000602082019050611ffa6000830184611fd6565b92915050565b61200981611fc4565b811461201457600080fd5b50565b60008135905061202681612000565b92915050565b6000806040838503121561204357612042611dc1565b5b600061205185828601612017565b925050602061206285828601611f62565b9150509250929050565b60008060006060848603121561208557612084611dc1565b5b600061209386828701612017565b93505060206120a486828701612017565b92505060406120b586828701611f62565b9150509250925092565b600080fd5b600080fd5b7f4e487b7100000000000000000000000000000000000000000000000000000000600052604160045260246000fd5b61210182611ed5565b810181811067ffffffffffffffff821117156121205761211f6120c9565b5b80604052505050565b6000612133611db7565b905061213f82826120f8565b919050565b600067ffffffffffffffff82111561215f5761215e6120c9565b5b61216882611ed5565b9050602081019050919050565b82818337600083830152505050565b600061219761219284612144565b612129565b9050828152602081018484840111156121b3576121b26120c4565b5b6121be848285612175565b509392505050565b600082601f8301126121db576121da6120bf565b5b81356121eb848260208601612184565b91505092915050565b60006020828403121561220a57612209611dc1565b5b600082013567ffffffffffffffff81111561222857612227611dc6565b5b612234848285016121c6565b91505092915050565b60006020828403121561225357612252611dc1565b5b600061226184828501612017565b91505092915050565b61227381611f41565b82525050565b600060208201905061228e600083018461226a565b92915050565b600081519050919050565b600082825260208201905092915050565b6000819050602082019050919050565b600082825260208201905092915050565b60006122dc82611e86565b6122e681856122c0565b93506122f6818560208601611ea2565b6122ff81611ed5565b840191505092915050565b600060ff82169050919050565b6123208161230a565b82525050565b6000606083016000830151848203600086015261234382826122d1565b91505060208301516123586020860182612317565b50604083015161236b6040860182612317565b508091505092915050565b60006123828383612326565b905092915050565b6000602082019050919050565b60006123a282612294565b6123ac818561229f565b9350836020820285016123be856122b0565b8060005b858110156123fa57848403895281516123db8582612376565b94506123e68361238a565b925060208a019950506001810190506123c2565b50829750879550505050505092915050565b600060208201905081810360008301526124268184612397565b905092915050565b6124378161230a565b82525050565b600060608201905081810360008301526124578186611ee6565b9050612466602083018561242e565b612473604083018461242e565b949350505050565b61248481611e50565b811461248f57600080fd5b50565b6000813590506124a18161247b565b92915050565b600080604083850312156124be576124bd611dc1565b5b60006124cc85828601612017565b92505060206124dd85828601612492565b9150509250929050565b600067ffffffffffffffff821115612502576125016120c9565b5b61250b82611ed5565b9050602081019050919050565b600061252b612526846124e7565b612129565b905082815260208101848484011115612547576125466120c4565b5b612552848285612175565b509392505050565b600082601f83011261256f5761256e6120bf565b5b813561257f848260208601612518565b91505092915050565b600080600080608085870312156125a2576125a1611dc1565b5b60006125b087828801612017565b94505060206125c187828801612017565b93505060406125d287828801611f62565b925050606085013567ffffffffffffffff8111156125f3576125f2611dc6565b5b6125ff8782880161255a565b91505092959194509250565b6000806040838503121561262257612621611dc1565b5b600061263085828601612017565b925050602061264185828601612017565b9150509250929050565b7f4e487b7100000000000000000000000000000000000000000000000000000000600052602260045260246000fd5b6000600282049050600182168061269257607f821691505b6020821081036126a5576126a461264b565b5b50919050565b7f4552433732313a20617070726f76616c20746f2063757272656e74206f776e6560008201527f7200000000000000000000000000000000000000000000000000000000000000602082015250565b6000612707602183611e91565b9150612712826126ab565b604082019050919050565b60006020820190508181036000830152612736816126fa565b9050919050565b7f4552433732313a20617070726f76652063616c6c6572206973206e6f7420746f60008201527f6b656e206f776e6572206e6f7220617070726f76656420666f7220616c6c0000602082015250565b6000612799603e83611e91565b91506127a48261273d565b604082019050919050565b600060208201905081810360008301526127c88161278c565b9050919050565b7f4552433732313a2063616c6c6572206973206e6f7420746f6b656e206f776e6560008201527f72206e6f7220617070726f766564000000000000000000000000000000000000602082015250565b600061282b602e83611e91565b9150612836826127cf565b604082019050919050565b6000602082019050818103600083015261285a8161281e565b9050919050565b7f56616c75652073656e74206973206c6f776572207468616e207468652070726960008201527f6365000000000000000000000000000000000000000000000000000000000000602082015250565b60006128bd602283611e91565b91506128c882612861565b604082019050919050565b600060208201905081810360008301526128ec816128b0565b9050919050565b60008190508160005260206000209050919050565b60006020601f8301049050919050565b600082821b905092915050565b6000600883026129557fffffffffffffffffffffffffffffffffffffffffffffffffffffffffffffffff82612918565b61295f8683612918565b95508019841693508086168417925050509392505050565b6000819050919050565b600061299c61299761299284611f41565b612977565b611f41565b9050919050565b6000819050919050565b6129b683612981565b6129ca6129c2826129a3565b848454612925565b825550505050565b600090565b6129df6129d2565b6129ea8184846129ad565b505050565b5b81811015612a0e57612a036000826129d7565b6001810190506129f0565b5050565b601f821115612a5357612a24816128f3565b612a2d84612908565b81016020851015612a3c578190505b612a50612a4885612908565b8301826129ef565b50505b505050565b600082821c905092915050565b6000612a7660001984600802612a58565b1980831691505092915050565b6000612a8f8383612a65565b9150826002028217905092915050565b612aa882611e86565b67ffffffffffffffff811115612ac157612ac06120c9565b5b612acb825461267a565b612ad6828285612a12565b600060209050601f831160018114612b095760008415612af7578287015190505b612b018582612a83565b865550612b69565b601f198416612b17866128f3565b60005b82811015612b3f57848901518255600182019150602085019450602081019050612b1a565b86831015612b5c5784890151612b58601f891682612a65565b8355505b6001600288020188555050505b505050505050565b7f4e487b7100000000000000000000000000000000000000000000000000000000600052601160045260246000fd5b6000612bab82611f41565b91507fffffffffffffffffffffffffffffffffffffffffffffffffffffffffffffffff8203612bdd57612bdc612b71565b5b600182019050919050565b6000612bf382611f41565b9150612bfe83611f41565b925082821015612c1157612c10612b71565b5b828203905092915050565b7f4552433732313a20696e76616c696420746f6b656e2049440000000000000000600082015250565b6000612c52601883611e91565b9150612c5d82612c1c565b602082019050919050565b60006020820190508181036000830152612c8181612c45565b9050919050565b7f4552433732313a2061646472657373207a65726f206973206e6f74206120766160008201527f6c6964206f776e65720000000000000000000000000000000000000000000000602082015250565b6000612ce4602983611e91565b9150612cef82612c88565b604082019050919050565b60006020820190508181036000830152612d1381612cd7565b9050919050565b600081905092915050565b6000612d3082611e86565b612d3a8185612d1a565b9350612d4a818560208601611ea2565b80840191505092915050565b6000612d628285612d25565b9150612d6e8284612d25565b91508190509392505050565b7f4f776e61626c653a206e6577206f776e657220697320746865207a65726f206160008201527f6464726573730000000000000000000000000000000000000000000000000000602082015250565b6000612dd6602683611e91565b9150612de182612d7a565b604082019050919050565b60006020820190508181036000830152612e0581612dc9565b9050919050565b7f4552433732313a207472616e736665722066726f6d20696e636f72726563742060008201527f6f776e6572000000000000000000000000000000000000000000000000000000602082015250565b6000612e68602583611e91565b9150612e7382612e0c565b604082019050919050565b60006020820190508181036000830152612e9781612e5b565b9050919050565b7f4552433732313a207472616e7366657220746f20746865207a65726f2061646460008201527f7265737300000000000000000000000000000000000000000000000000000000602082015250565b6000612efa602483611e91565b9150612f0582612e9e565b604082019050919050565b60006020820190508181036000830152612f2981612eed565b9050919050565b6000612f3b82611f41565b9150612f4683611f41565b9250827fffffffffffffffffffffffffffffffffffffffffffffffffffffffffffffffff03821115612f7b57612f7a612b71565b5b828201905092915050565b7f4f776e61626c653a2063616c6c6572206973206e6f7420746865206f776e6572600082015250565b6000612fbc602083611e91565b9150612fc782612f86565b602082019050919050565b60006020820190508181036000830152612feb81612faf565b9050919050565b7f4552433732313a20617070726f766520746f2063616c6c657200000000000000600082015250565b6000613028601983611e91565b915061303382612ff2565b602082019050919050565b600060208201905081810360008301526130578161301b565b9050919050565b7f4552433732313a207472616e7366657220746f206e6f6e20455243373231526560008201527f63656976657220696d706c656d656e7465720000000000000000000000000000602082015250565b60006130ba603283611e91565b91506130c58261305e565b604082019050919050565b600060208201905081810360008301526130e9816130ad565b9050919050565b7f4e487b7100000000000000000000000000000000000000000000000000000000600052601260045260246000fd5b600061312a82611f41565b915061313583611f41565b925082613145576131446130f0565b5b828204905092915050565b600061315b82611f41565b915061316683611f41565b925082613176576131756130f0565b5b828206905092915050565b7f4e487b7100000000000000000000000000000000000000000000000000000000600052603260045260246000fd5b600081519050919050565b600082825260208201905092915050565b60006131d7826131b0565b6131e181856131bb565b93506131f1818560208601611ea2565b6131fa81611ed5565b840191505092915050565b600060808201905061321a6000830187611fd6565b6132276020830186611fd6565b613234604083018561226a565b818103606083015261324681846131cc565b905095945050505050565b60008151905061326081611df7565b92915050565b60006020828403121561327c5761327b611dc1565b5b600061328a84828501613251565b91505092915050565b7f4552433732313a206d696e7420746f20746865207a65726f2061646472657373600082015250565b60006132c9602083611e91565b91506132d482613293565b602082019050919050565b600060208201905081810360008301526132f8816132bc565b9050919050565b7f4552433732313a20746f6b656e20616c7265616479206d696e74656400000000600082015250565b6000613335601c83611e91565b9150613340826132ff565b602082019050919050565b6000602082019050818103600083015261336481613328565b905091905056fea264697066735822122061630a4ca124df7303beb6d7a894cac830306a73a1e5334e5bc3003a6fe21b4464736f6c634300080f0033",
  "immutableReferences": {},
  "source": "// SPDX-License-Identifier: GPL-3.0\r\n\r\npragma solidity >=0.7.0 <0.9.0;\r\n\r\nimport \"@openzeppelin/contracts/token/ERC721/ERC721.sol\";\r\nimport \"@openzeppelin/contracts/access/Ownable.sol\";\r\n\r\n/**\r\n * @title FootballVerseClub\r\n * @dev MVP version of the FootballVerse Club Contract\r\n */\r\ncontract FootballVerseClub is ERC721, Ownable {\r\n    uint256 index;\r\n\r\n    struct Club {\r\n        string name;\r\n        uint8 stadium;\r\n        uint8 academy;\r\n    }\r\n\r\n    uint256 fee = 1 ether;\r\n\r\n    Club[] public clubs;\r\n\r\n    event NewClub(address indexed owner, uint256 index);\r\n\r\n    constructor(string memory tokenName, string memory tokenSymbol) ERC721(tokenName, tokenSymbol) {}\r\n\r\n    function _createClub(string memory _name) public payable {\r\n        require(msg.value >= fee, \"Value sent is lower than the price\");\r\n        Club memory newClub = Club(_name, 1, 1);\r\n        clubs.push(newClub);\r\n        _safeMint(msg.sender, index);\r\n        index++;\r\n\r\n        emit NewClub(msg.sender, index-1);\r\n    }\r\n\r\n    function changeFee(uint256 newFee) external onlyOwner() {\r\n        fee = newFee;\r\n    }\r\n\r\n    function withdraw() external payable onlyOwner() {\r\n        address payable owner = payable(owner());\r\n        owner.transfer(address(this).balance);\r\n    }\r\n\r\n    function getClubs() public view returns(Club[] memory) {\r\n        return clubs;\r\n    }\r\n}",
  "sourcePath": "C:\\Users\\38597\\Desktop\\ct\\footballverse\\footballverse\\contracts\\FootballVerseClub.sol",
  "compiler": {
    "name": "solc",
    "version": "0.8.15+commit.e14f2714.Emscripten.clang"
  },
  "schemaVersion": "3.4.8",
  "updatedAt": "2022-08-10T21:39:37.183Z",
  "networkType": "ethereum",
  "devdoc": {
    "details": "MVP version of the FootballVerse Club Contract",
    "kind": "dev",
    "methods": {
      "approve(address,uint256)": {
        "details": "See {IERC721-approve}."
      },
      "balanceOf(address)": {
        "details": "See {IERC721-balanceOf}."
      },
      "getApproved(uint256)": {
        "details": "See {IERC721-getApproved}."
      },
      "isApprovedForAll(address,address)": {
        "details": "See {IERC721-isApprovedForAll}."
      },
      "name()": {
        "details": "See {IERC721Metadata-name}."
      },
      "owner()": {
        "details": "Returns the address of the current owner."
      },
      "ownerOf(uint256)": {
        "details": "See {IERC721-ownerOf}."
      },
      "renounceOwnership()": {
        "details": "Leaves the contract without owner. It will not be possible to call `onlyOwner` functions anymore. Can only be called by the current owner. NOTE: Renouncing ownership will leave the contract without an owner, thereby removing any functionality that is only available to the owner."
      },
      "safeTransferFrom(address,address,uint256)": {
        "details": "See {IERC721-safeTransferFrom}."
      },
      "safeTransferFrom(address,address,uint256,bytes)": {
        "details": "See {IERC721-safeTransferFrom}."
      },
      "setApprovalForAll(address,bool)": {
        "details": "See {IERC721-setApprovalForAll}."
      },
      "supportsInterface(bytes4)": {
        "details": "See {IERC165-supportsInterface}."
      },
      "symbol()": {
        "details": "See {IERC721Metadata-symbol}."
      },
      "tokenURI(uint256)": {
        "details": "See {IERC721Metadata-tokenURI}."
      },
      "transferFrom(address,address,uint256)": {
        "details": "See {IERC721-transferFrom}."
      },
      "transferOwnership(address)": {
        "details": "Transfers ownership of the contract to a new account (`newOwner`). Can only be called by the current owner."
      }
    },
    "title": "FootballVerseClub",
    "version": 1
  },
  "userdoc": {
    "kind": "user",
    "methods": {},
    "version": 1
  }
}