{
  "contractName": "FootballVerseClub",
  "abi": [
    {
      "inputs": [
        {
          "internalType": "string",
          "name": "tokenName",
          "type": "string"
        },
        {
          "internalType": "string",
          "name": "tokenSymbol",
          "type": "string"
        }
      ],
      "stateMutability": "nonpayable",
      "type": "constructor"
    },
    {
      "anonymous": false,
      "inputs": [
        {
          "indexed": true,
          "internalType": "address",
          "name": "owner",
          "type": "address"
        },
        {
          "indexed": true,
          "internalType": "address",
          "name": "approved",
          "type": "address"
        },
        {
          "indexed": true,
          "internalType": "uint256",
          "name": "tokenId",
          "type": "uint256"
        }
      ],
      "name": "Approval",
      "type": "event"
    },
    {
      "anonymous": false,
      "inputs": [
        {
          "indexed": true,
          "internalType": "address",
          "name": "owner",
          "type": "address"
        },
        {
          "indexed": true,
          "internalType": "address",
          "name": "operator",
          "type": "address"
        },
        {
          "indexed": false,
          "internalType": "bool",
          "name": "approved",
          "type": "bool"
        }
      ],
      "name": "ApprovalForAll",
      "type": "event"
    },
    {
      "anonymous": false,
      "inputs": [
        {
          "indexed": true,
          "internalType": "address",
          "name": "owner",
          "type": "address"
        },
        {
          "indexed": false,
          "internalType": "uint256",
          "name": "index",
          "type": "uint256"
        }
      ],
      "name": "NewClub",
      "type": "event"
    },
    {
      "anonymous": false,
      "inputs": [
        {
          "indexed": true,
          "internalType": "address",
          "name": "previousOwner",
          "type": "address"
        },
        {
          "indexed": true,
          "internalType": "address",
          "name": "newOwner",
          "type": "address"
        }
      ],
      "name": "OwnershipTransferred",
      "type": "event"
    },
    {
      "anonymous": false,
      "inputs": [
        {
          "indexed": true,
          "internalType": "address",
          "name": "from",
          "type": "address"
        },
        {
          "indexed": true,
          "internalType": "address",
          "name": "to",
          "type": "address"
        },
        {
          "indexed": true,
          "internalType": "uint256",
          "name": "tokenId",
          "type": "uint256"
        }
      ],
      "name": "Transfer",
      "type": "event"
    },
    {
      "inputs": [
        {
          "internalType": "address",
          "name": "to",
          "type": "address"
        },
        {
          "internalType": "uint256",
          "name": "tokenId",
          "type": "uint256"
        }
      ],
      "name": "approve",
      "outputs": [],
      "stateMutability": "nonpayable",
      "type": "function"
    },
    {
      "inputs": [
        {
          "internalType": "address",
          "name": "owner",
          "type": "address"
        }
      ],
      "name": "balanceOf",
      "outputs": [
        {
          "internalType": "uint256",
          "name": "",
          "type": "uint256"
        }
      ],
      "stateMutability": "view",
      "type": "function",
      "constant": true
    },
    {
      "inputs": [
        {
          "internalType": "uint256",
          "name": "",
          "type": "uint256"
        }
      ],
      "name": "clubs",
      "outputs": [
        {
          "internalType": "string",
          "name": "name",
          "type": "string"
        },
        {
          "internalType": "uint8",
          "name": "stadium",
          "type": "uint8"
        },
        {
          "internalType": "uint8",
          "name": "academy",
          "type": "uint8"
        }
      ],
      "stateMutability": "view",
      "type": "function",
      "constant": true
    },
    {
      "inputs": [
        {
          "internalType": "uint256",
          "name": "tokenId",
          "type": "uint256"
        }
      ],
      "name": "getApproved",
      "outputs": [
        {
          "internalType": "address",
          "name": "",
          "type": "address"
        }
      ],
      "stateMutability": "view",
      "type": "function",
      "constant": true
    },
    {
      "inputs": [
        {
          "internalType": "address",
          "name": "owner",
          "type": "address"
        },
        {
          "internalType": "address",
          "name": "operator",
          "type": "address"
        }
      ],
      "name": "isApprovedForAll",
      "outputs": [
        {
          "internalType": "bool",
          "name": "",
          "type": "bool"
        }
      ],
      "stateMutability": "view",
      "type": "function",
      "constant": true
    },
    {
      "inputs": [],
      "name": "name",
      "outputs": [
        {
          "internalType": "string",
          "name": "",
          "type": "string"
        }
      ],
      "stateMutability": "view",
      "type": "function",
      "constant": true
    },
    {
      "inputs": [],
      "name": "owner",
      "outputs": [
        {
          "internalType": "address",
          "name": "",
          "type": "address"
        }
      ],
      "stateMutability": "view",
      "type": "function",
      "constant": true
    },
    {
      "inputs": [
        {
          "internalType": "uint256",
          "name": "tokenId",
          "type": "uint256"
        }
      ],
      "name": "ownerOf",
      "outputs": [
        {
          "internalType": "address",
          "name": "",
          "type": "address"
        }
      ],
      "stateMutability": "view",
      "type": "function",
      "constant": true
    },
    {
      "inputs": [],
      "name": "renounceOwnership",
      "outputs": [],
      "stateMutability": "nonpayable",
      "type": "function"
    },
    {
      "inputs": [
        {
          "internalType": "address",
          "name": "from",
          "type": "address"
        },
        {
          "internalType": "address",
          "name": "to",
          "type": "address"
        },
        {
          "internalType": "uint256",
          "name": "tokenId",
          "type": "uint256"
        }
      ],
      "name": "safeTransferFrom",
      "outputs": [],
      "stateMutability": "nonpayable",
      "type": "function"
    },
    {
      "inputs": [
        {
          "internalType": "address",
          "name": "from",
          "type": "address"
        },
        {
          "internalType": "address",
          "name": "to",
          "type": "address"
        },
        {
          "internalType": "uint256",
          "name": "tokenId",
          "type": "uint256"
        },
        {
          "internalType": "bytes",
          "name": "data",
          "type": "bytes"
        }
      ],
      "name": "safeTransferFrom",
      "outputs": [],
      "stateMutability": "nonpayable",
      "type": "function"
    },
    {
      "inputs": [
        {
          "internalType": "address",
          "name": "operator",
          "type": "address"
        },
        {
          "internalType": "bool",
          "name": "approved",
          "type": "bool"
        }
      ],
      "name": "setApprovalForAll",
      "outputs": [],
      "stateMutability": "nonpayable",
      "type": "function"
    },
    {
      "inputs": [
        {
          "internalType": "bytes4",
          "name": "interfaceId",
          "type": "bytes4"
        }
      ],
      "name": "supportsInterface",
      "outputs": [
        {
          "internalType": "bool",
          "name": "",
          "type": "bool"
        }
      ],
      "stateMutability": "view",
      "type": "function",
      "constant": true
    },
    {
      "inputs": [],
      "name": "symbol",
      "outputs": [
        {
          "internalType": "string",
          "name": "",
          "type": "string"
        }
      ],
      "stateMutability": "view",
      "type": "function",
      "constant": true
    },
    {
      "inputs": [
        {
          "internalType": "uint256",
          "name": "tokenId",
          "type": "uint256"
        }
      ],
      "name": "tokenURI",
      "outputs": [
        {
          "internalType": "string",
          "name": "",
          "type": "string"
        }
      ],
      "stateMutability": "view",
      "type": "function",
      "constant": true
    },
    {
      "inputs": [
        {
          "internalType": "address",
          "name": "from",
          "type": "address"
        },
        {
          "internalType": "address",
          "name": "to",
          "type": "address"
        },
        {
          "internalType": "uint256",
          "name": "tokenId",
          "type": "uint256"
        }
      ],
      "name": "transferFrom",
      "outputs": [],
      "stateMutability": "nonpayable",
      "type": "function"
    },
    {
      "inputs": [
        {
          "internalType": "address",
          "name": "newOwner",
          "type": "address"
        }
      ],
      "name": "transferOwnership",
      "outputs": [],
      "stateMutability": "nonpayable",
      "type": "function"
    },
    {
      "inputs": [
        {
          "internalType": "string",
          "name": "_name",
          "type": "string"
        }
      ],
      "name": "_createClub",
      "outputs": [],
      "stateMutability": "payable",
      "type": "function",
      "payable": true
    },
    {
      "inputs": [
        {
          "internalType": "uint256",
          "name": "newFee",
          "type": "uint256"
        }
      ],
      "name": "changeFee",
      "outputs": [],
      "stateMutability": "nonpayable",
      "type": "function"
    },
    {
      "inputs": [],
      "name": "withdraw",
      "outputs": [],
      "stateMutability": "payable",
      "type": "function",
      "payable": true
    },
    {
      "inputs": [],
      "name": "getClubs",
      "outputs": [
        {
          "components": [
            {
              "internalType": "string",
              "name": "name",
              "type": "string"
            },
            {
              "internalType": "uint8",
              "name": "stadium",
              "type": "uint8"
            },
            {
              "internalType": "uint8",
              "name": "academy",
              "type": "uint8"
            }
          ],
          "internalType": "struct FootballVerseClub.Club[]",
          "name": "",
          "type": "tuple[]"
        }
      ],
      "stateMutability": "view",
      "type": "function",
      "constant": true
    },
    {
      "inputs": [
        {
          "internalType": "address",
          "name": "_owner",
          "type": "address"
        }
      ],
      "name": "getOwnerClubs",
      "outputs": [
        {
          "components": [
            {
              "internalType": "string",
              "name": "name",
              "type": "string"
            },
            {
              "internalType": "uint8",
              "name": "stadium",
              "type": "uint8"
            },
            {
              "internalType": "uint8",
              "name": "academy",
              "type": "uint8"
            }
          ],
          "internalType": "struct FootballVerseClub.Club[]",
          "name": "",
          "type": "tuple[]"
        }
      ],
      "stateMutability": "view",
      "type": "function",
      "constant": true
    }
  ],
  "bytecode": "0x6080604052670de0b6b3a76400006008553480156200001d57600080fd5b5060405162003cf338038062003cf38339818101604052810190620000439190620002fe565b81818160009081620000569190620005ce565b508060019081620000689190620005ce565b5050506200008b6200007f6200009360201b60201c565b6200009b60201b60201c565b5050620006b5565b600033905090565b6000600660009054906101000a900473ffffffffffffffffffffffffffffffffffffffff16905081600660006101000a81548173ffffffffffffffffffffffffffffffffffffffff021916908373ffffffffffffffffffffffffffffffffffffffff1602179055508173ffffffffffffffffffffffffffffffffffffffff168173ffffffffffffffffffffffffffffffffffffffff167f8be0079c531659141344cd1fd0a4f28419497f9722a3daafe3b4186f6b6457e060405160405180910390a35050565b6000604051905090565b600080fd5b600080fd5b600080fd5b600080fd5b6000601f19601f8301169050919050565b7f4e487b7100000000000000000000000000000000000000000000000000000000600052604160045260246000fd5b620001ca826200017f565b810181811067ffffffffffffffff82111715620001ec57620001eb62000190565b5b80604052505050565b60006200020162000161565b90506200020f8282620001bf565b919050565b600067ffffffffffffffff82111562000232576200023162000190565b5b6200023d826200017f565b9050602081019050919050565b60005b838110156200026a5780820151818401526020810190506200024d565b838111156200027a576000848401525b50505050565b600062000297620002918462000214565b620001f5565b905082815260208101848484011115620002b657620002b56200017a565b5b620002c38482856200024a565b509392505050565b600082601f830112620002e357620002e262000175565b5b8151620002f584826020860162000280565b91505092915050565b600080604083850312156200031857620003176200016b565b5b600083015167ffffffffffffffff81111562000339576200033862000170565b5b6200034785828601620002cb565b925050602083015167ffffffffffffffff8111156200036b576200036a62000170565b5b6200037985828601620002cb565b9150509250929050565b600081519050919050565b7f4e487b7100000000000000000000000000000000000000000000000000000000600052602260045260246000fd5b60006002820490506001821680620003d657607f821691505b602082108103620003ec57620003eb6200038e565b5b50919050565b60008190508160005260206000209050919050565b60006020601f8301049050919050565b600082821b905092915050565b600060088302620004567fffffffffffffffffffffffffffffffffffffffffffffffffffffffffffffffff8262000417565b62000462868362000417565b95508019841693508086168417925050509392505050565b6000819050919050565b6000819050919050565b6000620004af620004a9620004a3846200047a565b62000484565b6200047a565b9050919050565b6000819050919050565b620004cb836200048e565b620004e3620004da82620004b6565b84845462000424565b825550505050565b600090565b620004fa620004eb565b62000507818484620004c0565b505050565b5b818110156200052f5762000523600082620004f0565b6001810190506200050d565b5050565b601f8211156200057e576200054881620003f2565b620005538462000407565b8101602085101562000563578190505b6200057b620005728562000407565b8301826200050c565b50505b505050565b600082821c905092915050565b6000620005a36000198460080262000583565b1980831691505092915050565b6000620005be838362000590565b9150826002028217905092915050565b620005d98262000383565b67ffffffffffffffff811115620005f557620005f462000190565b5b620006018254620003bd565b6200060e82828562000533565b600060209050601f83116001811462000646576000841562000631578287015190505b6200063d8582620005b0565b865550620006ad565b601f1984166200065686620003f2565b60005b82811015620006805784890151825560018201915060208501945060208101905062000659565b86831015620006a057848901516200069c601f89168262000590565b8355505b6001600288020188555050505b505050505050565b61362e80620006c56000396000f3fe6080604052600436106101355760003560e01c8063715018a6116100ab578063a22cb4651161006f578063a22cb465146103fa578063b88d4fde14610423578063c87b56dd1461044c578063e4af31d114610489578063e985e9c5146104c6578063f2fde38b1461050357610135565b8063715018a6146103235780637586a2bd1461033a5780638da5cb5b1461036557806395d89b41146103905780639cc009c1146103bb57610135565b80633ccfd60b116100fd5780633ccfd60b1461023157806342842e0e1461023b57806361475dc1146102645780636352211e146102805780636a1db1bf146102bd57806370a08231146102e657610135565b806301ffc9a71461013a57806306fdde0314610177578063081812fc146101a2578063095ea7b3146101df57806323b872dd14610208575b600080fd5b34801561014657600080fd5b50610161600480360381019061015c9190612087565b61052c565b60405161016e91906120cf565b60405180910390f35b34801561018357600080fd5b5061018c61060e565b6040516101999190612183565b60405180910390f35b3480156101ae57600080fd5b506101c960048036038101906101c491906121db565b6106a0565b6040516101d69190612249565b60405180910390f35b3480156101eb57600080fd5b5061020660048036038101906102019190612290565b6106e6565b005b34801561021457600080fd5b5061022f600480360381019061022a91906122d0565b6107fd565b005b61023961085d565b005b34801561024757600080fd5b50610262600480360381019061025d91906122d0565b6108bb565b005b61027e60048036038101906102799190612458565b6108db565b005b34801561028c57600080fd5b506102a760048036038101906102a291906121db565b610a51565b6040516102b49190612249565b60405180910390f35b3480156102c957600080fd5b506102e460048036038101906102df91906121db565b610b02565b005b3480156102f257600080fd5b5061030d600480360381019061030891906124a1565b610b14565b60405161031a91906124dd565b60405180910390f35b34801561032f57600080fd5b50610338610bcb565b005b34801561034657600080fd5b5061034f610bdf565b60405161035c9190612670565b60405180910390f35b34801561037157600080fd5b5061037a610d0a565b6040516103879190612249565b60405180910390f35b34801561039c57600080fd5b506103a5610d34565b6040516103b29190612183565b60405180910390f35b3480156103c757600080fd5b506103e260048036038101906103dd91906121db565b610dc6565b6040516103f1939291906126a1565b60405180910390f35b34801561040657600080fd5b50610421600480360381019061041c919061270b565b610ea2565b005b34801561042f57600080fd5b5061044a600480360381019061044591906127ec565b610eb8565b005b34801561045857600080fd5b50610473600480360381019061046e91906121db565b610f1a565b6040516104809190612183565b60405180910390f35b34801561049557600080fd5b506104b060048036038101906104ab91906124a1565b610f82565b6040516104bd9190612670565b60405180910390f35b3480156104d257600080fd5b506104ed60048036038101906104e8919061286f565b611177565b6040516104fa91906120cf565b60405180910390f35b34801561050f57600080fd5b5061052a600480360381019061052591906124a1565b61120b565b005b60007f80ac58cd000000000000000000000000000000000000000000000000000000007bffffffffffffffffffffffffffffffffffffffffffffffffffffffff1916827bffffffffffffffffffffffffffffffffffffffffffffffffffffffff191614806105f757507f5b5e139f000000000000000000000000000000000000000000000000000000007bffffffffffffffffffffffffffffffffffffffffffffffffffffffff1916827bffffffffffffffffffffffffffffffffffffffffffffffffffffffff1916145b8061060757506106068261128e565b5b9050919050565b60606000805461061d906128de565b80601f0160208091040260200160405190810160405280929190818152602001828054610649906128de565b80156106965780601f1061066b57610100808354040283529160200191610696565b820191906000526020600020905b81548152906001019060200180831161067957829003601f168201915b5050505050905090565b60006106ab826112f8565b6004600083815260200190815260200160002060009054906101000a900473ffffffffffffffffffffffffffffffffffffffff169050919050565b60006106f182610a51565b90508073ffffffffffffffffffffffffffffffffffffffff168373ffffffffffffffffffffffffffffffffffffffff1603610761576040517f08c379a000000000000000000000000000000000000000000000000000000000815260040161075890612981565b60405180910390fd5b8073ffffffffffffffffffffffffffffffffffffffff16610780611343565b73ffffffffffffffffffffffffffffffffffffffff1614806107af57506107ae816107a9611343565b611177565b5b6107ee576040517f08c379a00000000000000000000000000000000000000000000000000000000081526004016107e590612a13565b60405180910390fd5b6107f8838361134b565b505050565b61080e610808611343565b82611404565b61084d576040517f08c379a000000000000000000000000000000000000000000000000000000000815260040161084490612aa5565b60405180910390fd5b610858838383611499565b505050565b6108656116ff565b600061086f610d0a565b90508073ffffffffffffffffffffffffffffffffffffffff166108fc479081150290604051600060405180830381858888f193505050501580156108b7573d6000803e3d6000fd5b5050565b6108d683838360405180602001604052806000815250610eb8565b505050565b600854341015610920576040517f08c379a000000000000000000000000000000000000000000000000000000000815260040161091790612b37565b60405180910390fd5b60006040518060600160405280838152602001600160ff168152602001600160ff168152509050600981908060018154018082558091505060019003906000526020600020906002020160009091909190915060008201518160000190816109889190612d03565b5060208201518160010160006101000a81548160ff021916908360ff16021790555060408201518160010160016101000a81548160ff021916908360ff16021790555050506109d93360075461177d565b600760008154809291906109ec90612e04565b91905055503373ffffffffffffffffffffffffffffffffffffffff167fba3924473b2eb5a50880b6caac30a725fe20ae29aac735ae088785d9e8d1ab986001600754610a389190612e4c565b604051610a4591906124dd565b60405180910390a25050565b6000806002600084815260200190815260200160002060009054906101000a900473ffffffffffffffffffffffffffffffffffffffff169050600073ffffffffffffffffffffffffffffffffffffffff168173ffffffffffffffffffffffffffffffffffffffff1603610af9576040517f08c379a0000000000000000000000000000000000000000000000000000000008152600401610af090612ecc565b60405180910390fd5b80915050919050565b610b0a6116ff565b8060088190555050565b60008073ffffffffffffffffffffffffffffffffffffffff168273ffffffffffffffffffffffffffffffffffffffff1603610b84576040517f08c379a0000000000000000000000000000000000000000000000000000000008152600401610b7b90612f5e565b60405180910390fd5b600360008373ffffffffffffffffffffffffffffffffffffffff1673ffffffffffffffffffffffffffffffffffffffff168152602001908152602001600020549050919050565b610bd36116ff565b610bdd600061179b565b565b60606009805480602002602001604051908101604052809291908181526020016000905b82821015610d015783829060005260206000209060020201604051806060016040529081600082018054610c36906128de565b80601f0160208091040260200160405190810160405280929190818152602001828054610c62906128de565b8015610caf5780601f10610c8457610100808354040283529160200191610caf565b820191906000526020600020905b815481529060010190602001808311610c9257829003601f168201915b505050505081526020016001820160009054906101000a900460ff1660ff1660ff1681526020016001820160019054906101000a900460ff1660ff1660ff168152505081526020019060010190610c03565b50505050905090565b6000600660009054906101000a900473ffffffffffffffffffffffffffffffffffffffff16905090565b606060018054610d43906128de565b80601f0160208091040260200160405190810160405280929190818152602001828054610d6f906128de565b8015610dbc5780601f10610d9157610100808354040283529160200191610dbc565b820191906000526020600020905b815481529060010190602001808311610d9f57829003601f168201915b5050505050905090565b60098181548110610dd657600080fd5b9060005260206000209060020201600091509050806000018054610df9906128de565b80601f0160208091040260200160405190810160405280929190818152602001828054610e25906128de565b8015610e725780601f10610e4757610100808354040283529160200191610e72565b820191906000526020600020905b815481529060010190602001808311610e5557829003601f168201915b5050505050908060010160009054906101000a900460ff16908060010160019054906101000a900460ff16905083565b610eb4610ead611343565b8383611861565b5050565b610ec9610ec3611343565b83611404565b610f08576040517f08c379a0000000000000000000000000000000000000000000000000000000008152600401610eff90612aa5565b60405180910390fd5b610f14848484846119cd565b50505050565b6060610f25826112f8565b6000610f2f611a29565b90506000815111610f4f5760405180602001604052806000815250610f7a565b80610f5984611a40565b604051602001610f6a929190612fba565b6040516020818303038152906040525b915050919050565b60606000610f8f83610b14565b67ffffffffffffffff811115610fa857610fa761232d565b5b604051908082528060200260200182016040528015610fe157816020015b610fce611ff4565b815260200190600190039081610fc65790505b5090506000805b60098054905081101561116c578473ffffffffffffffffffffffffffffffffffffffff1661101582610a51565b73ffffffffffffffffffffffffffffffffffffffff1603611159576009818154811061104457611043612fde565b5b906000526020600020906002020160405180606001604052908160008201805461106d906128de565b80601f0160208091040260200160405190810160405280929190818152602001828054611099906128de565b80156110e65780601f106110bb576101008083540402835291602001916110e6565b820191906000526020600020905b8154815290600101906020018083116110c957829003601f168201915b505050505081526020016001820160009054906101000a900460ff1660ff1660ff1681526020016001820160019054906101000a900460ff1660ff1660ff1681525050838360ff168151811061113f5761113e612fde565b5b602002602001018190525081806111559061300d565b9250505b808061116490612e04565b915050610fe8565b508192505050919050565b6000600560008473ffffffffffffffffffffffffffffffffffffffff1673ffffffffffffffffffffffffffffffffffffffff16815260200190815260200160002060008373ffffffffffffffffffffffffffffffffffffffff1673ffffffffffffffffffffffffffffffffffffffff16815260200190815260200160002060009054906101000a900460ff16905092915050565b6112136116ff565b600073ffffffffffffffffffffffffffffffffffffffff168173ffffffffffffffffffffffffffffffffffffffff1603611282576040517f08c379a0000000000000000000000000000000000000000000000000000000008152600401611279906130a8565b60405180910390fd5b61128b8161179b565b50565b60007f01ffc9a7000000000000000000000000000000000000000000000000000000007bffffffffffffffffffffffffffffffffffffffffffffffffffffffff1916827bffffffffffffffffffffffffffffffffffffffffffffffffffffffff1916149050919050565b61130181611ba0565b611340576040517f08c379a000000000000000000000000000000000000000000000000000000000815260040161133790612ecc565b60405180910390fd5b50565b600033905090565b816004600083815260200190815260200160002060006101000a81548173ffffffffffffffffffffffffffffffffffffffff021916908373ffffffffffffffffffffffffffffffffffffffff160217905550808273ffffffffffffffffffffffffffffffffffffffff166113be83610a51565b73ffffffffffffffffffffffffffffffffffffffff167f8c5be1e5ebec7d5bd14f71427d1e84f3dd0314c0f7b2291e5b200ac8c7c3b92560405160405180910390a45050565b60008061141083610a51565b90508073ffffffffffffffffffffffffffffffffffffffff168473ffffffffffffffffffffffffffffffffffffffff16148061145257506114518185611177565b5b8061149057508373ffffffffffffffffffffffffffffffffffffffff16611478846106a0565b73ffffffffffffffffffffffffffffffffffffffff16145b91505092915050565b8273ffffffffffffffffffffffffffffffffffffffff166114b982610a51565b73ffffffffffffffffffffffffffffffffffffffff161461150f576040517f08c379a00000000000000000000000000000000000000000000000000000000081526004016115069061313a565b60405180910390fd5b600073ffffffffffffffffffffffffffffffffffffffff168273ffffffffffffffffffffffffffffffffffffffff160361157e576040517f08c379a0000000000000000000000000000000000000000000000000000000008152600401611575906131cc565b60405180910390fd5b611589838383611c0c565b61159460008261134b565b6001600360008573ffffffffffffffffffffffffffffffffffffffff1673ffffffffffffffffffffffffffffffffffffffff16815260200190815260200160002060008282546115e49190612e4c565b925050819055506001600360008473ffffffffffffffffffffffffffffffffffffffff1673ffffffffffffffffffffffffffffffffffffffff168152602001908152602001600020600082825461163b91906131ec565b92505081905550816002600083815260200190815260200160002060006101000a81548173ffffffffffffffffffffffffffffffffffffffff021916908373ffffffffffffffffffffffffffffffffffffffff160217905550808273ffffffffffffffffffffffffffffffffffffffff168473ffffffffffffffffffffffffffffffffffffffff167fddf252ad1be2c89b69c2b068fc378daa952ba7f163c4a11628f55a4df523b3ef60405160405180910390a46116fa838383611c11565b505050565b611707611343565b73ffffffffffffffffffffffffffffffffffffffff16611725610d0a565b73ffffffffffffffffffffffffffffffffffffffff161461177b576040517f08c379a00000000000000000000000000000000000000000000000000000000081526004016117729061328e565b60405180910390fd5b565b611797828260405180602001604052806000815250611c16565b5050565b6000600660009054906101000a900473ffffffffffffffffffffffffffffffffffffffff16905081600660006101000a81548173ffffffffffffffffffffffffffffffffffffffff021916908373ffffffffffffffffffffffffffffffffffffffff1602179055508173ffffffffffffffffffffffffffffffffffffffff168173ffffffffffffffffffffffffffffffffffffffff167f8be0079c531659141344cd1fd0a4f28419497f9722a3daafe3b4186f6b6457e060405160405180910390a35050565b8173ffffffffffffffffffffffffffffffffffffffff168373ffffffffffffffffffffffffffffffffffffffff16036118cf576040517f08c379a00000000000000000000000000000000000000000000000000000000081526004016118c6906132fa565b60405180910390fd5b80600560008573ffffffffffffffffffffffffffffffffffffffff1673ffffffffffffffffffffffffffffffffffffffff16815260200190815260200160002060008473ffffffffffffffffffffffffffffffffffffffff1673ffffffffffffffffffffffffffffffffffffffff16815260200190815260200160002060006101000a81548160ff0219169083151502179055508173ffffffffffffffffffffffffffffffffffffffff168373ffffffffffffffffffffffffffffffffffffffff167f17307eab39ab6107e8899845ad3d59bd9653f200f220920489ca2b5937696c31836040516119c091906120cf565b60405180910390a3505050565b6119d8848484611499565b6119e484848484611c71565b611a23576040517f08c379a0000000000000000000000000000000000000000000000000000000008152600401611a1a9061338c565b60405180910390fd5b50505050565b606060405180602001604052806000815250905090565b606060008203611a87576040518060400160405280600181526020017f30000000000000000000000000000000000000000000000000000000000000008152509050611b9b565b600082905060005b60008214611ab9578080611aa290612e04565b915050600a82611ab291906133db565b9150611a8f565b60008167ffffffffffffffff811115611ad557611ad461232d565b5b6040519080825280601f01601f191660200182016040528015611b075781602001600182028036833780820191505090505b5090505b60008514611b9457600182611b209190612e4c565b9150600a85611b2f919061340c565b6030611b3b91906131ec565b60f81b818381518110611b5157611b50612fde565b5b60200101907effffffffffffffffffffffffffffffffffffffffffffffffffffffffffffff1916908160001a905350600a85611b8d91906133db565b9450611b0b565b8093505050505b919050565b60008073ffffffffffffffffffffffffffffffffffffffff166002600084815260200190815260200160002060009054906101000a900473ffffffffffffffffffffffffffffffffffffffff1673ffffffffffffffffffffffffffffffffffffffff1614159050919050565b505050565b505050565b611c208383611df8565b611c2d6000848484611c71565b611c6c576040517f08c379a0000000000000000000000000000000000000000000000000000000008152600401611c639061338c565b60405180910390fd5b505050565b6000611c928473ffffffffffffffffffffffffffffffffffffffff16611fd1565b15611deb578373ffffffffffffffffffffffffffffffffffffffff1663150b7a02611cbb611343565b8786866040518563ffffffff1660e01b8152600401611cdd9493929190613492565b6020604051808303816000875af1925050508015611d1957506040513d601f19601f82011682018060405250810190611d1691906134f3565b60015b611d9b573d8060008114611d49576040519150601f19603f3d011682016040523d82523d6000602084013e611d4e565b606091505b506000815103611d93576040517f08c379a0000000000000000000000000000000000000000000000000000000008152600401611d8a9061338c565b60405180910390fd5b805181602001fd5b63150b7a0260e01b7bffffffffffffffffffffffffffffffffffffffffffffffffffffffff1916817bffffffffffffffffffffffffffffffffffffffffffffffffffffffff191614915050611df0565b600190505b949350505050565b600073ffffffffffffffffffffffffffffffffffffffff168273ffffffffffffffffffffffffffffffffffffffff1603611e67576040517f08c379a0000000000000000000000000000000000000000000000000000000008152600401611e5e9061356c565b60405180910390fd5b611e7081611ba0565b15611eb0576040517f08c379a0000000000000000000000000000000000000000000000000000000008152600401611ea7906135d8565b60405180910390fd5b611ebc60008383611c0c565b6001600360008473ffffffffffffffffffffffffffffffffffffffff1673ffffffffffffffffffffffffffffffffffffffff1681526020019081526020016000206000828254611f0c91906131ec565b92505081905550816002600083815260200190815260200160002060006101000a81548173ffffffffffffffffffffffffffffffffffffffff021916908373ffffffffffffffffffffffffffffffffffffffff160217905550808273ffffffffffffffffffffffffffffffffffffffff16600073ffffffffffffffffffffffffffffffffffffffff167fddf252ad1be2c89b69c2b068fc378daa952ba7f163c4a11628f55a4df523b3ef60405160405180910390a4611fcd60008383611c11565b5050565b6000808273ffffffffffffffffffffffffffffffffffffffff163b119050919050565b604051806060016040528060608152602001600060ff168152602001600060ff1681525090565b6000604051905090565b600080fd5b600080fd5b60007fffffffff0000000000000000000000000000000000000000000000000000000082169050919050565b6120648161202f565b811461206f57600080fd5b50565b6000813590506120818161205b565b92915050565b60006020828403121561209d5761209c612025565b5b60006120ab84828501612072565b91505092915050565b60008115159050919050565b6120c9816120b4565b82525050565b60006020820190506120e460008301846120c0565b92915050565b600081519050919050565b600082825260208201905092915050565b60005b83811015612124578082015181840152602081019050612109565b83811115612133576000848401525b50505050565b6000601f19601f8301169050919050565b6000612155826120ea565b61215f81856120f5565b935061216f818560208601612106565b61217881612139565b840191505092915050565b6000602082019050818103600083015261219d818461214a565b905092915050565b6000819050919050565b6121b8816121a5565b81146121c357600080fd5b50565b6000813590506121d5816121af565b92915050565b6000602082840312156121f1576121f0612025565b5b60006121ff848285016121c6565b91505092915050565b600073ffffffffffffffffffffffffffffffffffffffff82169050919050565b600061223382612208565b9050919050565b61224381612228565b82525050565b600060208201905061225e600083018461223a565b92915050565b61226d81612228565b811461227857600080fd5b50565b60008135905061228a81612264565b92915050565b600080604083850312156122a7576122a6612025565b5b60006122b58582860161227b565b92505060206122c6858286016121c6565b9150509250929050565b6000806000606084860312156122e9576122e8612025565b5b60006122f78682870161227b565b93505060206123088682870161227b565b9250506040612319868287016121c6565b9150509250925092565b600080fd5b600080fd5b7f4e487b7100000000000000000000000000000000000000000000000000000000600052604160045260246000fd5b61236582612139565b810181811067ffffffffffffffff821117156123845761238361232d565b5b80604052505050565b600061239761201b565b90506123a3828261235c565b919050565b600067ffffffffffffffff8211156123c3576123c261232d565b5b6123cc82612139565b9050602081019050919050565b82818337600083830152505050565b60006123fb6123f6846123a8565b61238d565b90508281526020810184848401111561241757612416612328565b5b6124228482856123d9565b509392505050565b600082601f83011261243f5761243e612323565b5b813561244f8482602086016123e8565b91505092915050565b60006020828403121561246e5761246d612025565b5b600082013567ffffffffffffffff81111561248c5761248b61202a565b5b6124988482850161242a565b91505092915050565b6000602082840312156124b7576124b6612025565b5b60006124c58482850161227b565b91505092915050565b6124d7816121a5565b82525050565b60006020820190506124f260008301846124ce565b92915050565b600081519050919050565b600082825260208201905092915050565b6000819050602082019050919050565b600082825260208201905092915050565b6000612540826120ea565b61254a8185612524565b935061255a818560208601612106565b61256381612139565b840191505092915050565b600060ff82169050919050565b6125848161256e565b82525050565b600060608301600083015184820360008601526125a78282612535565b91505060208301516125bc602086018261257b565b5060408301516125cf604086018261257b565b508091505092915050565b60006125e6838361258a565b905092915050565b6000602082019050919050565b6000612606826124f8565b6126108185612503565b93508360208202850161262285612514565b8060005b8581101561265e578484038952815161263f85826125da565b945061264a836125ee565b925060208a01995050600181019050612626565b50829750879550505050505092915050565b6000602082019050818103600083015261268a81846125fb565b905092915050565b61269b8161256e565b82525050565b600060608201905081810360008301526126bb818661214a565b90506126ca6020830185612692565b6126d76040830184612692565b949350505050565b6126e8816120b4565b81146126f357600080fd5b50565b600081359050612705816126df565b92915050565b6000806040838503121561272257612721612025565b5b60006127308582860161227b565b9250506020612741858286016126f6565b9150509250929050565b600067ffffffffffffffff8211156127665761276561232d565b5b61276f82612139565b9050602081019050919050565b600061278f61278a8461274b565b61238d565b9050828152602081018484840111156127ab576127aa612328565b5b6127b68482856123d9565b509392505050565b600082601f8301126127d3576127d2612323565b5b81356127e384826020860161277c565b91505092915050565b6000806000806080858703121561280657612805612025565b5b60006128148782880161227b565b94505060206128258782880161227b565b9350506040612836878288016121c6565b925050606085013567ffffffffffffffff8111156128575761285661202a565b5b612863878288016127be565b91505092959194509250565b6000806040838503121561288657612885612025565b5b60006128948582860161227b565b92505060206128a58582860161227b565b9150509250929050565b7f4e487b7100000000000000000000000000000000000000000000000000000000600052602260045260246000fd5b600060028204905060018216806128f657607f821691505b602082108103612909576129086128af565b5b50919050565b7f4552433732313a20617070726f76616c20746f2063757272656e74206f776e6560008201527f7200000000000000000000000000000000000000000000000000000000000000602082015250565b600061296b6021836120f5565b91506129768261290f565b604082019050919050565b6000602082019050818103600083015261299a8161295e565b9050919050565b7f4552433732313a20617070726f76652063616c6c6572206973206e6f7420746f60008201527f6b656e206f776e6572206e6f7220617070726f76656420666f7220616c6c0000602082015250565b60006129fd603e836120f5565b9150612a08826129a1565b604082019050919050565b60006020820190508181036000830152612a2c816129f0565b9050919050565b7f4552433732313a2063616c6c6572206973206e6f7420746f6b656e206f776e6560008201527f72206e6f7220617070726f766564000000000000000000000000000000000000602082015250565b6000612a8f602e836120f5565b9150612a9a82612a33565b604082019050919050565b60006020820190508181036000830152612abe81612a82565b9050919050565b7f56616c75652073656e74206973206c6f776572207468616e207468652070726960008201527f6365000000000000000000000000000000000000000000000000000000000000602082015250565b6000612b216022836120f5565b9150612b2c82612ac5565b604082019050919050565b60006020820190508181036000830152612b5081612b14565b9050919050565b60008190508160005260206000209050919050565b60006020601f8301049050919050565b600082821b905092915050565b600060088302612bb97fffffffffffffffffffffffffffffffffffffffffffffffffffffffffffffffff82612b7c565b612bc38683612b7c565b95508019841693508086168417925050509392505050565b6000819050919050565b6000612c00612bfb612bf6846121a5565b612bdb565b6121a5565b9050919050565b6000819050919050565b612c1a83612be5565b612c2e612c2682612c07565b848454612b89565b825550505050565b600090565b612c43612c36565b612c4e818484612c11565b505050565b5b81811015612c7257612c67600082612c3b565b600181019050612c54565b5050565b601f821115612cb757612c8881612b57565b612c9184612b6c565b81016020851015612ca0578190505b612cb4612cac85612b6c565b830182612c53565b50505b505050565b600082821c905092915050565b6000612cda60001984600802612cbc565b1980831691505092915050565b6000612cf38383612cc9565b9150826002028217905092915050565b612d0c826120ea565b67ffffffffffffffff811115612d2557612d2461232d565b5b612d2f82546128de565b612d3a828285612c76565b600060209050601f831160018114612d6d5760008415612d5b578287015190505b612d658582612ce7565b865550612dcd565b601f198416612d7b86612b57565b60005b82811015612da357848901518255600182019150602085019450602081019050612d7e565b86831015612dc05784890151612dbc601f891682612cc9565b8355505b6001600288020188555050505b505050505050565b7f4e487b7100000000000000000000000000000000000000000000000000000000600052601160045260246000fd5b6000612e0f826121a5565b91507fffffffffffffffffffffffffffffffffffffffffffffffffffffffffffffffff8203612e4157612e40612dd5565b5b600182019050919050565b6000612e57826121a5565b9150612e62836121a5565b925082821015612e7557612e74612dd5565b5b828203905092915050565b7f4552433732313a20696e76616c696420746f6b656e2049440000000000000000600082015250565b6000612eb66018836120f5565b9150612ec182612e80565b602082019050919050565b60006020820190508181036000830152612ee581612ea9565b9050919050565b7f4552433732313a2061646472657373207a65726f206973206e6f74206120766160008201527f6c6964206f776e65720000000000000000000000000000000000000000000000602082015250565b6000612f486029836120f5565b9150612f5382612eec565b604082019050919050565b60006020820190508181036000830152612f7781612f3b565b9050919050565b600081905092915050565b6000612f94826120ea565b612f9e8185612f7e565b9350612fae818560208601612106565b80840191505092915050565b6000612fc68285612f89565b9150612fd28284612f89565b91508190509392505050565b7f4e487b7100000000000000000000000000000000000000000000000000000000600052603260045260246000fd5b60006130188261256e565b915060ff820361302b5761302a612dd5565b5b600182019050919050565b7f4f776e61626c653a206e6577206f776e657220697320746865207a65726f206160008201527f6464726573730000000000000000000000000000000000000000000000000000602082015250565b60006130926026836120f5565b915061309d82613036565b604082019050919050565b600060208201905081810360008301526130c181613085565b9050919050565b7f4552433732313a207472616e736665722066726f6d20696e636f72726563742060008201527f6f776e6572000000000000000000000000000000000000000000000000000000602082015250565b60006131246025836120f5565b915061312f826130c8565b604082019050919050565b6000602082019050818103600083015261315381613117565b9050919050565b7f4552433732313a207472616e7366657220746f20746865207a65726f2061646460008201527f7265737300000000000000000000000000000000000000000000000000000000602082015250565b60006131b66024836120f5565b91506131c18261315a565b604082019050919050565b600060208201905081810360008301526131e5816131a9565b9050919050565b60006131f7826121a5565b9150613202836121a5565b9250827fffffffffffffffffffffffffffffffffffffffffffffffffffffffffffffffff0382111561323757613236612dd5565b5b828201905092915050565b7f4f776e61626c653a2063616c6c6572206973206e6f7420746865206f776e6572600082015250565b60006132786020836120f5565b915061328382613242565b602082019050919050565b600060208201905081810360008301526132a78161326b565b9050919050565b7f4552433732313a20617070726f766520746f2063616c6c657200000000000000600082015250565b60006132e46019836120f5565b91506132ef826132ae565b602082019050919050565b60006020820190508181036000830152613313816132d7565b9050919050565b7f4552433732313a207472616e7366657220746f206e6f6e20455243373231526560008201527f63656976657220696d706c656d656e7465720000000000000000000000000000602082015250565b60006133766032836120f5565b91506133818261331a565b604082019050919050565b600060208201905081810360008301526133a581613369565b9050919050565b7f4e487b7100000000000000000000000000000000000000000000000000000000600052601260045260246000fd5b60006133e6826121a5565b91506133f1836121a5565b925082613401576134006133ac565b5b828204905092915050565b6000613417826121a5565b9150613422836121a5565b925082613432576134316133ac565b5b828206905092915050565b600081519050919050565b600082825260208201905092915050565b60006134648261343d565b61346e8185613448565b935061347e818560208601612106565b61348781612139565b840191505092915050565b60006080820190506134a7600083018761223a565b6134b4602083018661223a565b6134c160408301856124ce565b81810360608301526134d38184613459565b905095945050505050565b6000815190506134ed8161205b565b92915050565b60006020828403121561350957613508612025565b5b6000613517848285016134de565b91505092915050565b7f4552433732313a206d696e7420746f20746865207a65726f2061646472657373600082015250565b60006135566020836120f5565b915061356182613520565b602082019050919050565b6000602082019050818103600083015261358581613549565b9050919050565b7f4552433732313a20746f6b656e20616c7265616479206d696e74656400000000600082015250565b60006135c2601c836120f5565b91506135cd8261358c565b602082019050919050565b600060208201905081810360008301526135f1816135b5565b905091905056fea2646970667358221220e8bc59d009b1be68310a541dcfe907c3b71f684373bdf3b7e1f73f5152da183b64736f6c634300080f0033",
  "immutableReferences": {},
  "source": "// SPDX-License-Identifier: GPL-3.0\r\n\r\npragma solidity >=0.7.0 <0.9.0;\r\n\r\nimport \"@openzeppelin/contracts/token/ERC721/ERC721.sol\";\r\nimport \"@openzeppelin/contracts/access/Ownable.sol\";\r\n\r\n/**\r\n * @title FootballVerseClub\r\n * @dev MVP version of the FootballVerse Club Contract\r\n */\r\ncontract FootballVerseClub is ERC721, Ownable {\r\n    uint256 index;\r\n\r\n    struct Club {\r\n        string name;\r\n        uint8 stadium;\r\n        uint8 academy;\r\n    }\r\n\r\n    uint256 fee = 1 ether;\r\n\r\n    Club[] public clubs;\r\n\r\n    event NewClub(address indexed owner, uint256 index);\r\n\r\n    constructor(string memory tokenName, string memory tokenSymbol) ERC721(tokenName, tokenSymbol) {}\r\n\r\n    function _createClub(string memory _name) public payable {\r\n        require(msg.value >= fee, \"Value sent is lower than the price\");\r\n        Club memory newClub = Club(_name, 1, 1);\r\n        clubs.push(newClub);\r\n        _safeMint(msg.sender, index);\r\n        index++;\r\n\r\n        emit NewClub(msg.sender, index-1);\r\n    }\r\n\r\n    function changeFee(uint256 newFee) external onlyOwner() {\r\n        fee = newFee;\r\n    }\r\n\r\n    function withdraw() external payable onlyOwner() {\r\n        address payable owner = payable(owner());\r\n        owner.transfer(address(this).balance);\r\n    }\r\n\r\n    function getClubs() public view returns(Club[] memory) {\r\n        return clubs;\r\n    }\r\n\r\n    function getOwnerClubs(address _owner) public view returns (Club[] memory) {\r\n        Club[] memory result = new Club[](balanceOf(_owner));\r\n        uint8 counter = 0;\r\n\r\n        for(uint256 i=0; i < clubs.length; i++) {\r\n            if(ownerOf(i) == _owner) {\r\n                result[counter] = clubs[i];\r\n                counter++;\r\n            }\r\n        }\r\n\r\n        return result;\r\n    }\r\n}",
  "sourcePath": "C:\\Users\\38597\\Desktop\\ct\\footballverse\\footballverse\\contracts\\FootballVerseClub.sol",
  "compiler": {
    "name": "solc",
    "version": "0.8.15+commit.e14f2714.Emscripten.clang"
  },
  "schemaVersion": "3.4.8",
  "updatedAt": "2022-08-12T15:32:55.834Z",
  "networkType": "ethereum",
  "devdoc": {
    "details": "MVP version of the FootballVerse Club Contract",
    "kind": "dev",
    "methods": {
      "approve(address,uint256)": {
        "details": "See {IERC721-approve}."
      },
      "balanceOf(address)": {
        "details": "See {IERC721-balanceOf}."
      },
      "getApproved(uint256)": {
        "details": "See {IERC721-getApproved}."
      },
      "isApprovedForAll(address,address)": {
        "details": "See {IERC721-isApprovedForAll}."
      },
      "name()": {
        "details": "See {IERC721Metadata-name}."
      },
      "owner()": {
        "details": "Returns the address of the current owner."
      },
      "ownerOf(uint256)": {
        "details": "See {IERC721-ownerOf}."
      },
      "renounceOwnership()": {
        "details": "Leaves the contract without owner. It will not be possible to call `onlyOwner` functions anymore. Can only be called by the current owner. NOTE: Renouncing ownership will leave the contract without an owner, thereby removing any functionality that is only available to the owner."
      },
      "safeTransferFrom(address,address,uint256)": {
        "details": "See {IERC721-safeTransferFrom}."
      },
      "safeTransferFrom(address,address,uint256,bytes)": {
        "details": "See {IERC721-safeTransferFrom}."
      },
      "setApprovalForAll(address,bool)": {
        "details": "See {IERC721-setApprovalForAll}."
      },
      "supportsInterface(bytes4)": {
        "details": "See {IERC165-supportsInterface}."
      },
      "symbol()": {
        "details": "See {IERC721Metadata-symbol}."
      },
      "tokenURI(uint256)": {
        "details": "See {IERC721Metadata-tokenURI}."
      },
      "transferFrom(address,address,uint256)": {
        "details": "See {IERC721-transferFrom}."
      },
      "transferOwnership(address)": {
        "details": "Transfers ownership of the contract to a new account (`newOwner`). Can only be called by the current owner."
      }
    },
    "title": "FootballVerseClub",
    "version": 1
  },
  "userdoc": {
    "kind": "user",
    "methods": {},
    "version": 1
  }
}